:020000040800F2
:1000000008070020890100089F0E0008750D0008F0
:100010009D0E00088F020008D510000800000000A7
:10002000000000000000000000000000A30E000817
:100030009102000800000000A10E0008A50E0008B3
:10004000A3010008A3010008A3010008A301000800
:10005000A3010008A3010008A3010008A3010008F0
:10006000A3010008A3010008A3010008A3010008E0
:10007000A3010008A3010008A3010008A3010008D0
:10008000A3010008A3010008A3010008A3010008C0
:10009000A3010008A3010008A3010008A3010008B0
:1000A000A3010008A3010008A3010008A3010008A0
:1000B000A3010008A3010008A3010008A301000890
:1000C000A3010008A3010008A3010008A301000880
:1000D000A3010008A3010008A3010008A301000870
:1000E000A3010008A3010008A301000800F002F822
:1000F00000F03AF80AA090E8000C82448344AAF188
:100100000107DA4501D100F02FF8AFF2090EBAE885
:100110000F0013F0010F18BFFB1A43F0010318473B
:100120005810000078100000103A24BF78C878C139
:10013000FAD8520724BF30C830C144BF04680C60ED
:10014000704700000023002400250026103A28BF35
:1001500078C1FBD8520728BF30C148BF0B60704739
:100160001FB51FBD10B510BD00F058F81146FFF7C0
:10017000F7FF00F0C1FF00F076F803B4FFF7F2FFDD
:1001800003BC00F07DF8000009488047094800479B
:10019000FEE7FEE7FEE7FEE7FEE7FEE7FEE7FEE737
:1001A000FEE7FEE704480549054A064B7047000094
:1001B000070F0008ED0000080801002008070020D4
:1001C00008030020080300204FF0000200B513468A
:1001D00094469646203922BFA0E80C50A0E80C5067
:1001E000B1F12001BFF4F7AF090728BFA0E80C5018
:1001F00048BF0CC05DF804EB890028BF40F8042B11
:1002000008BF704748BF20F8022B11F0804F18BF7D
:1002100000F8012B7047704770477047754600F033
:100220002BF8AE4605006946534620F00700854688
:1002300018B020B5FFF7B6FFBDE820404FF000062C
:100240004FF000074FF000084FF0000B21F00701BE
:10025000AC46ACE8C009ACE8C009ACE8C009ACE801
:10026000C0098D46704710B50446AFF300802046A4
:10027000BDE81040FFF781BF00487047A400002090
:1002800001491820ABBEFEE7260002007047FEE7DA
:10029000704772B6FEE7000070B5044600F0FEF845
:1002A0000546601C02D004480078044400F0F6F8CB
:1002B000401BA042FAD370BD040000202DE9F84F86
:1002C000DFF8B891002409F1040A0AF1040B23466F
:1002D0000F270BF1040EC9E00125A5402A40AA42D0
:1002E0007DD1674ED1F804C0ACEB0608B44532D0DE
:1002F00014DCBCF1030F3AD009DCBCF1000F2AD0AA
:10030000BCF1010F1CD0BCF1020F31D11DE0BCF1DA
:10031000110F17D0BCF1120F2AD119E0B8F5881FC0
:1003200019D006DCB8F5803F15D0B8F5801F1FD175
:1003300011E0B8F5001F0ED0B8F5041F18D10AE07F
:10034000CB6815E0CB681B1D12E0CB6808330FE0CB
:10035000CB680C330CE08B682BB1012B4FF00803FA
:1003600003D0456104E0042302E0056100E00023BE
:10037000FF2A01D8064601E000F104064FEA840591
:1003800001D9A5F12005D6F8008007FA05FC28EA76
:100390000C0803FA05F548EA0508C6F800804D6820
:1003A000ED0062D5374DAE6946F00106AE61AD692C
:1003B00024F0030605F001050095334D06EB050C0E
:1003C000DCF80850A607360F07FA06F825EA0805F4
:1003D000DFF8B880404503D14FF0000817E044E053
:1003E000DFF8AC80404502D14FF001080FE0DFF8A4
:1003F000A480404502D14FF0020808E0DFF8988061
:10040000404502D14FF0030801E04FF0040808FA1C
:1004100006F848EA0508CCF808804D68D9F800606D
:10042000ED034D4601D5164300E096432E604D681E
:10043000DAF80060AD03554601D5164300E0964357
:100440002E604D68DBF80060ED025D4601D5164375
:1004500000E096432E604D68DEF80060AD02754600
:1004600001D5164300E096432E60641C0D682A46B1
:10047000E5407FF431AFBDE8F88F00000004014093
:10048000000011100010024000000140000801406F
:10049000000C014000100140001401400148806838
:1004A000704700000400002002488168027811446F
:1004B0008160704704000020074810B5016841F0D2
:1004C00010010160032000F067F80F2000F006F82B
:1004D00000F024F8002010BD0020024070B50D4D42
:1004E00004464FF47A712878B1FBF0F00A490968A4
:1004F000B1FBF0F000F0BEFA48B9102C07D2002290
:100500002146501E00F028F800206C6070BD0120CC
:1005100070BD000004000020100000200C4808B549
:10052000816941F001018161816901F0010100915E
:10053000C16941F08051C161C06900F080500090F4
:100540000448416821F0E06141F00071416008BD5C
:100550000010024000000140F0B40E4B1B680C4636
:10056000C3F30223C3F10705042D00D90425191D87
:10057000072901D2002300E0DB1E012606FA05F15F
:10058000491E214099409E40761E16403143F0BCE2
:1005900000F0A1BD0CED00E0064900F0070208687C
:1005A0004FF6FF03184040EA0220034A1043086058
:1005B000704700000CED00E00000FA052DE9F0475F
:1005C0000F46050061D0434E306800F00700B84286
:1005D00009D2306820F0070038433060306800F0FE
:1005E0000700B84251D128683B4C810712D540071B
:1005F00003D5606840F4E06060602878000703D5A8
:10060000606840F4605060606068A96820F0F000A5
:10061000084360602878C00728D06868012810D097
:100620002168022810D0890700292EDA616821F09C
:10063000030101436160FFF731FF804641F28839D1
:100640000DE021688903EFE78901EDE7FFF726FF59
:10065000A0EB0801494502D90320BDE8F087606896
:10066000696800F00C00B0EB810FEFD1306800F04A
:100670000700B8420BD9306820F0070038433060DB
:10068000306800F00700B84201D00120E5E7287883
:10069000400705D56068E96820F4E06008436060C1
:1006A0002878000706D56068296920F4605040EA80
:1006B000C100606000F018F86168084AC1F30311D6
:1006C000515CC8400649086006480068FFF706FF0D
:1006D0000020C2E70020024000100240681100081C
:1006E000100000200800002012A185B00FC98DE87D
:1006F0000F0014A0144A006804905168134801F0D8
:100700000C03042B10D0082B0ED1C1F38343C90373
:100710001DF803000AD5516804AAC1F34041515C99
:100720000A4A5043B0FBF1F005B07047084948430E
:10073000FAE7000002030405060708090A0B0C0D7E
:100740000E0F1010010200000010024000127A008B
:1007500000093D002DE9F84F040070D02078C04D0D
:10076000C00749D06868C0F38100012807D06868D5
:10077000C0F38100022809D16868C00306D5286843
:10078000800339D560680028E7D035E06068B0F5AF
:10079000803F0BD010B1B0F5A02F11D0286820F405
:1007A00080302860286820F4802002E0286840F427
:1007B00080302860606890B1FFF770FE06460AE05E
:1007C000286840F480202860F0E700BFFFF766FE4D
:1007D000801B642873D828688003F7D50CE0FFF7E6
:1007E0005DFE064605E000BFFFF758FE801B64284B
:1007F000F0D828688003F7D420789A4E80074FF00D
:1008000001094FF0000839D5686810F00C0F07D0C7
:100810006868C0F38100022809D16868C00306D463
:100820002868800714D52069012808D110E02069C4
:10083000B0B1C6F80090FFF731FE074605E00AE1C7
:10084000FFF72CFEC01B0228C4D828688007F7D504
:100850002868616920F0F80040EAC10028600DE0D6
:10086000C6F80080FFF71AFE074604E0FFF716FE01
:10087000C01B022823D828688007F7D420780007F7
:100880002CD57948A169D9B1C0F80090FFF706FED0
:10089000074604E0FFF702FEC01B02280FD8686A73
:1008A0008007F7D571484FF4FA510068B0FBF1F0BA
:1008B000009000BF0098411E0091FAD20EE080E047
:1008C000C0F80080FFF7EAFD074604E0FFF7E6FD09
:1008D000C01B022875D8686A8007F7D420784007C3
:1008E00060D5E8690027C00008D4E86940F080506E
:1008F000E861E869012700F0805000905C480168D9
:10090000C90513D40168834641F480710160FFF783
:10091000C5FD824606E000BFFFF7C0FDA0EB0A0060
:1009200064284ED8DBF80000C005F5D5E068012842
:100930000AD008B1052813D0286A20F001002862E7
:10094000286A20F0040002E0286A40F001002862D2
:10095000E06841F2883B98B1FFF7A0FD82460BE0CA
:10096000286A40F004002862EEE700BFFFF796FD1A
:10097000A0EB0A0159455AD8286A8007F6D50CE041
:10098000FFF78CFD824605E0FFF788FDA0EB0A012A
:1009900059454CD8286A8007F6D41FB1E86920F081
:1009A0008050E861E06988B36968C1F38101022978
:1009B00044D00228C6F8608004D0FFF76FFD0446DB
:1009C00038E034E0FFF76AFD074604E0FFF766FD14
:1009D000C01B02282BD828688001F7D4206AB0F504
:1009E000803F05D16868A16820F400300843686042
:1009F000D4E908010843696821F474110843686068
:100A0000C6F86090FFF74AFD044606E025E000BF07
:100A1000FFF744FD001B022809D828688001F7D59C
:100A20001BE000BFFFF73AFD001B022802D903209C
:100A3000BDE8F88F28688001F4D40EE00128F7D0D3
:100A40006868226A00F48031914204D1616A00F43E
:100A50007010884201D00120EAE70020E8E700009A
:100A60000010024000004242800442421000002078
:100A70000070004010B5401EB0F1807F01D301200E
:100A800010BD4FF0E02460610F21601700F023FBE0
:100A90000020A06107202061002010BD70B590F8F3
:100AA0003C20012A26D0012480F83C40022280F814
:100AB0003D2003685A689D6822F070060A68324338
:100AC0005A600D4B02689A4208D0B2F1804F05D0AF
:100AD0000A4B9A4202D00A4B9A4204D1496825F047
:100AE00080031943916080F83D40002180F83C105C
:100AF000084670BD022070BD002C0140000400407B
:100B00000008004010B586B00021009101910291CB
:100B10000391144C0368144840220221A3420DD1D2
:100B2000836943F0040383618069CDE9002100F00B
:100B30000400CDE9031069460C480FE00C4CA342B9
:100B40000ED1836943F0080383618069CDE90021F8
:100B500000F00800CDE9031069460648FFF7AEFB38
:100B600006B010BD00040040001002400008014023
:100B700000080040000C014070B5044690F83C00AD
:100B80000D4601280AD0012084F83C0042B1042A15
:100B900018D0082A2AD00C2A4DD139E0022070BD85
:100BA000206800F0F5F92068816941F00801816151
:100BB0002068816921F004018161206881692A69C6
:100BC000114311E0206800F00BFA2068816941F4BC
:100BD000006181612068816921F480618161206800
:100BE00081692A6941EA0221816124E0206800F0DC
:100BF00023FA2068C16941F00801C1612068C16918
:100C000021F00401C1612068C1692A69114311E022
:100C1000206800F03DFA2068C16941F40061C161BB
:100C20002068C16921F48061C1612068C1692A69B5
:100C300041EA0221C161002084F83C0070BD10B57A
:100C4000040003D094F83D0010B107E0012010BD6E
:100C5000002084F83C00204600F01EF8022084F8B2
:100C60003D00211D206800F04FF9012084F8460066
:100C700084F83E0084F83F0084F8400084F8410086
:100C800084F8420084F8430084F8440084F8450066
:100C900084F83D00002010BD08B50C4A01680C48DE
:100CA000914207D1C16941F00201C161C06900F000
:100CB000020009E0074A914207D1C16941F00401ED
:100CC000C161C06900F00400009008BD000400404C
:100CD000001002400008004010B50446022249B14D
:100CE00004290ED0082913D094F84100012816D009
:100CF000012010BD94F83E000128F9D184F83E206F
:100D00000FE094F83F000128F2D184F83F2008E07A
:100D100094F840000128EBD184F8402001E084F8E9
:100D200041200122206800F025F90F4920688842FF
:100D300003D1426C42F4004242642068884208D0E9
:100D4000B0F1804F05D00949884202D00849884255
:100D500004D1816801F00701062903D0016841F040
:100D600001010160002010BD002C01400004004082
:100D700000080040FEE700000D4808B5816941F019
:100D800020018161816901F020010091816941F0B8
:100D900004018161816901F004010091816941F0E0
:100DA00008018161806900F00800009008BD000022
:100DB0000010024010B58AB0002407941C21684638
:100DC0000894FFF701FA1748154901604721C0E967
:100DD00001144FF4FA71C0E903148461FFF72FFF87
:100DE00008B1FFF756FA079407A90E480894FFF7D1
:100DF00055FE08B1FFF74DFA602000900A20CDE9BA
:100E000001040022694607480494FFF7B5FE08B1C3
:100E1000FFF73FFA0348FFF775FE0AB010BD000068
:100E2000000400401400002010B58AB0002407948C
:100E30001C2168460894FFF7C7F917481549016057
:100E40004721C0E901144FF4FA71C0E90314846129
:100E5000FFF7F5FE08B1FFF71CFA079407A90E4843
:100E60000894FFF71BFE08B1FFF713FA602000900B
:100E70000A20CDE901040022694607480494FFF7DF
:100E80007BFE08B1FFF705FA0348FFF73BFE0AB007
:100E900010BD0000000800405C000020FEE7FEE7F7
:100EA00070477047FFF700BB30B58FB02821684608
:100EB000FFF78AF914210AA8FFF786F9012108042F
:100EC000CDE900100024029402250491CDE90750D9
:100ED0004FF4E01009906846FFF73CFC08B172B689
:100EE000FEE70F20CDE90A054FF48060CDE90C4004
:100EF00002210AA80E94FFF761FB002801D072B608
:100F0000FEE70FB030BD7047F0B50268164B174CC6
:100F1000174D4FF08047984205D0B84203D0A04209
:100F200001D0A84203D122F070064A6832439842A9
:100F300005D0B84203D0A04201D0A84203D122F488
:100F40004074CA6822434C6922F080022243026046
:100F50008A68C2620A688262984201D109690163A3
:100F600001214161F0BD0000002C0140000400405F
:100F70000008004010B501F01F030121046A9940E8
:100F80008C430462016A9A401143016210BD000063
:100F900030B5026A22F001020262026A4368846983
:100FA00024F073050C682C4322F002058A682A435A
:100FB0000A4DA8420BD122F00805CA6823F44073F9
:100FC0002A434D6922F004021D438B692B43436081
:100FD000846149684163026230BD0000002C014019
:100FE00030B5026A22F010020262026A4368846924
:100FF0000D6824F4E64444EA05248D6822F02002BA
:1010000042EA05120B4DA8420ED1CD6822F08002B3
:1010100042EA05124D6923F4406343EA85038D6972
:1010200022F0400243EA850343608461496881639A
:10103000026230BD002C014030B5026A22F4807299
:101040000262036A4268C46923F4007324F07305E2
:101050000C682C438D6843EA05230C4DA8420ED141
:10106000CD6823F4006343EA05234D6922F440521E
:1010700042EA05128D6923F4806342EA0512426058
:10108000C4614968C163036230BD0000002C0140A7
:1010900030B5026A22F480520262046A4268C3696F
:1010A0000D6823F4E64343EA05238D6824F40054D5
:1010B00044EA0534064DA84204D14D6922F4804229
:1010C00042EA85124260C36149680164046230BD2E
:1010D000002C0140FEE70907090E002804DB00F19F
:1010E000E02080F80014704700F00F0000F1E020CD
:1010F00080F8141D70470000FFF7DEF9FFF7D4FEFB
:10110000FFF73AFEFFF756FEFFF78EFE0021134869
:10111000FFF7E2FD00211248FFF7DEFD0F4EDFF87A
:101120004080104C4FF4FA7700253220FFF7B4F8D6
:1011300020880A3081B2218060880A3080B26080C5
:10114000B94200D92580326821885163B84200D95C
:101150006580D8F8000061884163E6E7140000204C
:101160005C000020000000200000000000000000E3
:101170000102030406070809981100080000002076
:101180001400000028010008AC1100081400002021
:10119000F4060000440100080A000A0001000000F3
:0C11A00010000000000000000024F4001B
:04000005080000ED02
:00000001FF
