:020000040800F2
:100000006007002089010008F31100088F10000824
:10001000F11100088F0200086914000800000000B8
:10002000000000000000000000000000F7110008C0
:100030009102000800000000F5110008F911000805
:10004000A3010008A3010008A3010008A301000800
:10005000A3010008A3010008A3010008A3010008F0
:10006000A3010008A3010008A3010008A3010008E0
:10007000A3010008A3010008A3010008A3010008D0
:10008000A3010008A3010008A3010008A3010008C0
:10009000A3010008A3010008A3010008A3010008B0
:1000A000A3010008A3010008A3010008A3010008A0
:1000B0005D12000869120008A3010008A3010008EE
:1000C000A3010008A3010008A3010008A301000880
:1000D000A3010008A3010008A3010008A301000870
:1000E000A3010008A3010008A301000800F002F822
:1000F00000F03AF80AA090E8000C82448344AAF188
:100100000107DA4501D100F02FF8AFF2090EBAE885
:100110000F0013F0010F18BFFB1A43F0010318473B
:10012000C4130000E4130000103A24BF78C878C15B
:10013000FAD8520724BF30C830C144BF04680C60ED
:10014000704700000023002400250026103A28BF35
:1001500078C1FBD8520728BF30C148BF0B60704739
:100160001FB51FBD10B510BD00F058F81146FFF7C0
:10017000F7FF01F08BF900F076F803B4FFF7F2FF18
:1001800003BC00F07DF8000009488047094800479B
:10019000FEE7FEE7FEE7FEE7FEE7FEE7FEE7FEE737
:1001A000FEE7FEE704480549054A064B7047000094
:1001B0005B120008ED0000086001002060070020CD
:1001C00060030020600300204FF0000200B51346DA
:1001D00094469646203922BFA0E80C50A0E80C5067
:1001E000B1F12001BFF4F7AF090728BFA0E80C5018
:1001F00048BF0CC05DF804EB890028BF40F8042B11
:1002000008BF704748BF20F8022B11F0804F18BF7D
:1002100000F8012B7047704770477047754600F033
:100220002BF8AE4605006946534620F00700854688
:1002300018B020B5FFF7B6FFBDE820404FF000062C
:100240004FF000074FF000084FF0000B21F00701BE
:10025000AC46ACE8C009ACE8C009ACE8C009ACE801
:10026000C0098D46704710B50446AFF300802046A4
:10027000BDE81040FFF781BF004870470001002033
:1002800001491820ABBEFEE7260002007047FEE7DA
:10029000704772B6FEE700002DE9F84FDFF8B8911D
:1002A000002409F1040A0AF1040B23460F270BF17D
:1002B000040EC9E00125A5402A40AA427DD1674E1F
:1002C000D1F804C0ACEB0608B44532D014DCBCF164
:1002D000030F3AD009DCBCF1000F2AD0BCF1010FAA
:1002E0001CD0BCF1020F31D11DE0BCF1110F17D0B1
:1002F000BCF1120F2AD119E0B8F5881F19D006DC1D
:10030000B8F5803F15D0B8F5801F1FD111E0B8F5C2
:10031000001F0ED0B8F5041F18D10AE0CB6815E015
:10032000CB681B1D12E0CB6808330FE0CB680C33A1
:100330000CE08B682BB1012B4FF0080303D0456113
:1003400004E0042302E0056100E00023FF2A01D855
:10035000064601E000F104064FEA840501D9A5F143
:100360002005D6F8008007FA05FC28EA0C0803FAF5
:1003700005F548EA0508C6F800804D68ED0062D52D
:10038000374DAE6946F00106AE61AD6924F0030653
:1003900005F001050095334D06EB050CDCF808501F
:1003A000A607360F07FA06F825EA0805DFF8B88031
:1003B000404503D14FF0000817E044E0DFF8AC807F
:1003C000404502D14FF001080FE0DFF8A48040451E
:1003D00002D14FF0020808E0DFF89880404502D1D2
:1003E0004FF0030801E04FF0040808FA06F848EA65
:1003F0000508CCF808804D68D9F80060ED034D463B
:1004000001D5164300E096432E604D68DAF800608F
:10041000AD03554601D5164300E096432E604D6866
:10042000DBF80060ED025D4601D5164300E096431F
:100430002E604D68DEF80060AD02754601D51643AA
:1004400000E096432E60641C0D682A46E5407FF468
:1004500031AFBDE8F88F000000040140000011102A
:10046000001002400000014000080140000C014063
:100470000010014000140140C26821EA02030A4052
:1004800043EA0241016170470AB101617047090402
:10049000FBE7000001488068704700001C00002056
:1004A0000248816802781144816070471C00002076
:1004B000074810B5016841F010010160032000F009
:1004C00075F80F2000F006F800F024F8002010BDA9
:1004D0000020024070B50D4D04464FF47A71287823
:1004E000B1FBF0F00A490968B1FBF0F000F0ECFA5A
:1004F00048B9102C07D200222146501E00F036F8D1
:1005000000206C6070BD012070BD00001C00002048
:10051000280000200C4808B5816941F00101816183
:10052000816901F001010091C16941F08051C1610F
:10053000C06900F0805000900448416821F0E061FB
:1005400041F00071416008BD001002400000014010
:10055000002809DB00F01F020121914040098000C2
:1005600000F1E020C0F8001170470000F0B40E4B1D
:100570001B680C46C3F30223C3F10705042D00D901
:100580000425191D072901D2002300E0DB1E0126E6
:1005900006FA05F1491E214099409E40761E1640FC
:1005A0003143F0BC00F061BF0CED00E0064900F003
:1005B000070208684FF6FF03184040EA0220034A8A
:1005C00010430860704700000CED00E00000FA05E1
:1005D0002DE9F0470F46050061D0434E306800F02A
:1005E0000700B84209D2306820F007003843306075
:1005F000306800F00700B84251D128683B4C8107B1
:1006000012D5400703D5606840F4E0606060287848
:10061000000703D5606840F4605060606068A968B6
:1006200020F0F000084360602878C00728D0686890
:10063000012810D02168022810D0890700292EDA5D
:10064000616821F0030101436160FFF723FF8046E9
:1006500041F288390DE021688903EFE78901EDE770
:10066000FFF718FFA0EB0801494502D90320BDE8B8
:10067000F0876068696800F00C00B0EB810FEFD183
:10068000306800F00700B8420BD9306820F007004E
:1006900038433060306800F00700B84201D00120D4
:1006A000E5E72878400705D56068E96820F4E06050
:1006B000084360602878000706D56068296920F43F
:1006C000605040EAC100606000F038F86168084A94
:1006D000C1F30311515CC840064908600648006830
:1006E000FFF7F8FE0020C2E70020024000100240A1
:1006F000CC140008280000202000002004480549F0
:1007000000684968044AC1F30221515CC84070473F
:100710002800002000100240DC14000804480549AD
:1007200000684968044AC1F3C221515CC84070475F
:100730002800002000100240DC14000812A185B03F
:100740000FC98DE80F0014A0144A00680490516886
:10075000134801F00C03042B10D0082B0ED1C1F369
:100760008343C9031DF803000AD5516804AAC1F3E5
:100770004041515C0A4A5043B0FBF1F005B070476C
:1007800008494843FAE70000020304050607080980
:100790000A0B0C0D0E0F1010010200000010024099
:1007A00000127A0000093D002DE9F84F040070D0D6
:1007B0002078C04DC00749D06868C0F38100012887
:1007C00007D06868C0F38100022809D16868C003B7
:1007D00006D52868800339D560680028E7D035E061
:1007E0006068B0F5803F0BD010B1B0F5A02F11D0EC
:1007F000286820F480302860286820F4802002E0F7
:10080000286840F480302860606890B1FFF742FEAD
:1008100006460AE0286840F480202860F0E700BF20
:10082000FFF738FE801B642873D828688003F7D54B
:100830000CE0FFF72FFE064605E000BFFFF72AFE9B
:10084000801B6428F0D828688003F7D420789A4E5B
:1008500080074FF001094FF0000839D5686810F0A3
:100860000C0F07D06868C0F38100022809D16868BE
:10087000C00306D42868800714D52069012808D150
:1008800010E02069B0B1C6F80090FFF703FE0746FC
:1008900005E00AE1FFF7FEFDC01B0228C4D8286866
:1008A0008007F7D52868616920F0F80040EAC100A8
:1008B00028600DE0C6F80080FFF7ECFD074604E075
:1008C000FFF7E8FDC01B022823D828688007F7D46B
:1008D000207800072CD57948A169D9B1C0F80090DB
:1008E000FFF7D8FD074604E0FFF7D4FDC01B022840
:1008F0000FD8686A8007F7D571484FF4FA5100683D
:10090000B0FBF1F0009000BF0098411E0091FAD2B8
:100910000EE080E0C0F80080FFF7BCFD074604E071
:10092000FFF7B8FDC01B022875D8686A8007F7D4A6
:100930002078400760D5E8690027C00008D4E8693E
:1009400040F08050E861E869012700F08050009095
:100950005C480168C90513D40168834641F480717D
:100960000160FFF797FD824606E000BFFFF792FDAA
:10097000A0EB0A0064284ED8DBF80000C005F5D5CE
:10098000E06801280AD008B1052813D0286A20F0B1
:1009900001002862286A20F0040002E0286A40F082
:1009A00001002862E06841F2883B98B1FFF772FDD0
:1009B00082460BE0286A40F004002862EEE700BFA0
:1009C000FFF768FDA0EB0A0159455AD8286A80074D
:1009D000F6D50CE0FFF75EFD824605E0FFF75AFD15
:1009E000A0EB0A0159454CD8286A8007F6D41FB1FC
:1009F000E86920F08050E861E06988B36968C1F374
:100A00008101022944D00228C6F8608004D0FFF793
:100A100041FD044638E034E0FFF73CFD074604E0C2
:100A2000FFF738FDC01B02282BD828688001F7D4B7
:100A3000206AB0F5803F05D16868A16820F40030D5
:100A400008436860D4E908010843696821F4741117
:100A500008436860C6F86090FFF71CFD044606E096
:100A600025E000BFFFF716FD001B022809D8286803
:100A70008001F7D51BE000BFFFF70CFD001B02282B
:100A800002D90320BDE8F88F28688001F4D40EE075
:100A90000128F7D06868226A00F48031914204D1BD
:100AA000616A00F47010884201D00120EAE700205A
:100AB000E8E7000000100240000042428004424289
:100AC000280000200070004010B5401EB0F1807F6B
:100AD00001D3012010BD4FF0E02460610F216017A9
:100AE00000F0C3FC0020A06107202061002010BDA1
:100AF0007047704770B590F83C20012A26D0012439
:100B000080F83C40022280F83D2003685A689D68C6
:100B100022F070060A6832435A600D4B02689A420E
:100B200008D0B2F1804F05D00A4B9A4202D00A4B4E
:100B30009A4204D1496825F080031943916080F8F6
:100B40003D40002180F83C10084670BD022070BD79
:100B5000002C0140000400400008004010B50400D3
:100B600003D094F83D0010B107E0012010BD002033
:100B700084F83C00204600F01FF8022084F83D0075
:100B8000211D206800F076FB012084F8460084F8DF
:100B90003E0084F83F0084F8400084F8410084F867
:100BA000420084F8430084F8440084F8450084F847
:100BB0003D00002010BD000008B501681048B1F1EB
:100BC000804F14D00F4A914219D1C16941F00201FE
:100BD000C161C069002200F00200009011461D2092
:100BE000FFF7C4FCBDE808401D20FFF7B1BCC16998
:100BF00041F00101C161C06900F00100009008BD31
:100C0000001002400004004090F83D10012901D07E
:100C100001207047022180F83D100168CA6842F047
:100C20000102CA6000680B49884208D0B0F1804FC9
:100C300005D00949884202D00849884204D1816818
:100C400001F00701062903D0016841F001010160AC
:100C500000207047002C01400004004000080040C4
:100C600070B5044690F83C00012817D0012584F89F
:100C70003C50022084F83D002068826822F0770210
:100C800022F47F4282600868502830D00DDC202892
:100C90004DD005DC98B310283BD148E0022070BD50
:100CA000302844D0402834D139E0602828D070283A
:100CB00006D0B0F5805F2CD0B0F5005F29D10AE0F6
:100CC000CB68D1E90121206800F00AFB2068816827
:100CD00041F0770109E0CB68D1E90121206800F0FB
:100CE000FFFA2068816841F48041816011E0CA68A0
:100CF0004968206800F006FB5021206807E016E0F4
:100D0000CA684968206800F00EFB6021206800F086
:100D1000F1FA84F83D50002084F83C0070BDCA68A8
:100D20004968206800F0EEFA40212068EFE7226869
:100D300001461046EBE7704770B50446006801694C
:100D40004FF00005C943890715D4C168C943890715
:100D500011D4E91E01610120207720688069800795
:100D6000204602D0FFF7E7FF04E000F098F82046A5
:100D700000F096F8257720680169C943490717D420
:100D8000C168C943490713D46FF00401016102200F
:100D900020772068806910F4407F204602D0FFF75A
:100DA000CAFF04E000F07BF8204600F079F82577D0
:100DB00020680169C943090716D4C168C9430907F6
:100DC00012D46FF008010161042020772068C06907
:100DD0008007204602D0FFF7AEFF04E000F05FF886
:100DE000204600F05DF8257720680169C943C906EF
:100DF00017D4C168C943C90613D46FF0100101614B
:100E0000082020772068C06910F4407F204602D077
:100E1000FFF791FF04E000F042F8204600F040F8B0
:100E2000257720680169C943C90708D1C168C9434A
:100E3000C90704D1891E0161204600F033F82068FB
:100E40000169C943090609D4C168C943090605D423
:100E50006FF0800101612046FFF74AFE20680169BA
:100E6000C943490609D4C168C943490605D46FF08E
:100E700040010161204600F047F820680169C9433C
:100E800089060BD4C168C943890607D46FF02001D5
:100E900001612046BDE87040FFF72BBE70BD704772
:100EA0007047000070B5054600680026114CB0F18F
:100EB000804F0AD12068401C2060B0F5C87F18D34D
:100EC00002210D482660FFF7D7FA0C4928688842AE
:100ED0000FD16068401C6060B0F57A7F09D366600E
:100EE000BDE8704003491422054B0831054800F065
:100EF00075B870BD000000200008014000040040EB
:100F0000A0860100BC000020704770B5040004D02A
:100F100094F83D00002510B106E0012070BD84F872
:100F20003C50204600F022F8242084F83D00206840
:100F3000C16821F40051C160204600F007FA206822
:100F4000016921F4904101612068416921F02A0181
:100F500041612068C16841F40051C16025642020CE
:100F600084F83D0084F83E00002070BD30B585B0A7
:100F70000024009401940294039400681449884268
:100F800024D11448816941F480418161816901F46F
:100F900080410491816941F00401816180690E4DB5
:100FA00000F0040004904FF40070009002200190C3
:100FB0000320039069462846FFF76EF92815CDE90E
:100FC0000004694628460294FFF766F905B030BD73
:100FD0000038014000100240000801402DE9F843AC
:100FE000044690F83D001F4616460D4620284CD179
:100FF000C5B1BEB194F83C00012846D0012084F868
:101000003C004FF00008C4F84080212084F83D00E7
:10101000FFF740FAA6848146E684A068B0F5805FB9
:1010200003D004E00120BDE8F883206928B12E46F2
:101030005FF0000584F83C800EE00026FAE780218E
:10104000204600F0DFF9A0B9AEB116F8010B216817
:101050004860E08C401EE084E08C4B464FF000027C
:1010600000970028EBD14FF04001204600F0CAF96C
:1010700030B10320D7E735F8020BC0F30800E6E7EC
:10108000202084F83D000020CDE70220CBE7FEE7DA
:1010900030B585B000241348009401940294039461
:1010A000816941F020018161816901F02001049191
:1010B000816941F00401816180690B4D00F00400F9
:1010C0000490002202212846FFF7DEF902210120C8
:1010D000CDE90010CDE9024169462846FFF7DCF86A
:1010E00005B030BD001002400008014010B586B0C8
:1010F00000241648009401940294039404944FF041
:101100008041059401604721C0E9011441F2883112
:10111000C0E903148461FFF721FD08B1FFF7B9F8B6
:101120004FF48050009069460848FFF799FD08B1D8
:10113000FFF7AFF8049404A904480594FFF7DAFC1C
:10114000002801D0FFF7A5F806B010BD2C00002044
:1011500010B586B0002417480094019402940394BB
:1011600004941349059401604721C0E9011441F238
:101170008831C0E903148461FFF7F0FC08B1FFF780
:1011800088F84FF48050009069460A48FFF768FDE0
:1011900008B1FFF77EF8049404A906480594FFF708
:1011A000A9FC002801D0FFF774F806B010BD0000BC
:1011B00000040040740000200C4810B50A4901608A
:1011C0004FF4E1314160002181600C22C160C0E92F
:1011D00004128161C161FFF798FE002803D0BDE8C9
:1011E0001040FFF756B810BD00380140BC00002089
:1011F000FEE7FEE770477047FFF752B930B58FB092
:1012000028216846FEF7E0FF14210AA8FEF7DCFF5C
:1012100001210804CDE90010002402940225049164
:10122000CDE907504FF4E01009906846FFF7BCFA8B
:1012300008B172B6FEE70F20CDE90A054FF48060D1
:10124000CDE90C4002210AA80E94FFF7C1F900284D
:1012500001D072B6FEE70FB030BD70470148FFF70E
:101260006BBD00002C0000200148FFF765BD0000A9
:1012700074000020F0B50268164B174C174D4FF064
:101280008047984205D0B84203D0A04201D0A8427E
:1012900003D122F070064A683243984205D0B84222
:1012A00003D0A04201D0A84203D122F44074CA68FE
:1012B00022434C6922F08002224302608A68C262A3
:1012C0000A688262984201D1096901630121416182
:1012D000F0BD0000002C0140000400400008004068
:1012E00010B5846842EA032224F47F440A4322436F
:1012F000826010BD826822F070020A4342F007014A
:101300008160704710B5036A046A24F00104046226
:10131000846924F0F00444EA021423F00A020A4328
:101320008461026210BD10B5036A23F010030362EA
:101330008369046A23F4704343EA023224F0A00371
:1013400043EA01118261016210BD000070B50446DC
:1013500000680169E26821F440511143016121698B
:10136000A0680843616908432168CA6841F20C63B8
:101370009A430243CA6020684169A26921F440711E
:10138000114341611E492068884202D1FFF7C6F926
:1013900001E0FFF7B3F900EBC00101EB0012606858
:1013A00064218000B2FBF0F3B3FBF1F36FF0180699
:1013B0007343B2FBF0F5B2FBF0F605EB8305322385
:1013C00003EB0515B5FBF1F5B6FBF1F605F0F005FD
:1013D00005EB0615B2FBF0F6B2FBF0F0B0FBF1F056
:1013E0006FF01802504306EB800003EB0010B0FBD7
:1013F000F1F0216800F00F002844886070BD000003
:10140000003801402DE9F041984617460E46044643
:10141000069D1DE0681C1BD02DB1FFF73BF8A0EB2B
:101420000800A84214D92068C16821F4D071C160B5
:101430002068416921F001014161202084F83D00CC
:1014400084F83E00002084F83C000320BDE8F081D1
:101450002068006836EA000004D00020B842D9D0E5
:101460000020F3E70120F9E7FEE70907090E00284D
:1014700004DB00F1E02080F80014704700F00F005A
:1014800000F1E02080F8141D70470000FFF710F80D
:10149000FFF7B4FEFFF7FCFDFFF728FEFFF758FE4D
:1014A000FFF78AFE002211461C20FFF75FF81C2080
:1014B000FFF74EF80348FFF7A7FB0348FFF7A4FB2D
:1014C000FEE700002C000020740000200000000057
:1014D00000000000010203040607080900000000E4
:1014E0000102030404150008000000202C00000085
:1014F00028010008301500082C00002034070000E7
:1015000044010008000000000000000068656C6CE9
:101510006F2077696E646F7773A3A10D0A000000D6
:101520000100000010000000000000000024F40092
:04000005080000ED02
:00000001FF
