:020000040800F2
:1000000038070020890100088D0100088F010008D1
:10001000910100089301000895010008000000000C
:100020000000000000000000000000009701000830
:1000300099010008000000009B0100089D010008D4
:100040009F0100089F0100089F0100089F01000810
:100050009F0100089F0100089F0100089F01000800
:100060009F0100089F0100089F0100089F010008F0
:100070009F0100089F0100089F0100089F010008E0
:100080009F0100089F0100089F0100089F010008D0
:100090009F0100089F0100089F0100089F010008C0
:1000A0009F0100089F0100089F0100089F010008B0
:1000B0009F0100089F0100089F0100089F010008A0
:1000C0009F0100089F0100089F0100089F01000890
:1000D0009F010008C10400089F0100089F0100085B
:1000E0009F0100089F0100089F01000800F002F82E
:1000F00000F03AF80AA090E8000C82448344AAF188
:100100000107DA4501D100F02FF8AFF2090EBAE885
:100110000F0013F0010F18BFFB1A43F0010318473B
:10012000D00B0000F00B0000103A24BF78C878C153
:10013000FAD8520724BF30C830C144BF04680C60ED
:10014000704700000023002400250026103A28BF35
:1001500078C1FBD8520728BF30C148BF0B60704739
:100160001FB51FBD10B510BD00F06AF81146FFF7AE
:10017000F7FF00F035FA00F09CF803B4FFF7F2FF48
:1001800003BC00F0DFF9000008480047FEE7FEE787
:10019000FEE7FEE7FEE7FEE7FEE7FEE7FEE7FEE737
:1001A00003480449044A054B70470000ED0000086D
:1001B00038010020380700203803002038030020D1
:1001C000704700000FB4044910B503AA029800F06C
:1001D00009F810BC5DF814FB04000020704770475C
:1001E00070477047074B70B50D467B4400F011F81F
:1001F0000446284600F020F810B14FF0FF3070BDE3
:10020000204670BDD703000001694A1C02610878CE
:10021000704700B58FB0CDE9013100210591054946
:100220007944CDE903101146684600F02EF80FB06E
:1002300000BD0000E5FFFFFF007B00F0800070477D
:10024000754600F03FF8AE4605006946534620F07B
:100250000700854618B020B5FFF7A2FFBDE8204093
:100260004FF000064FF000074FF000084FF0000B72
:1002700021F00701AC46ACE8C009ACE8C009ACE825
:10028000C009ACE8C0098D4670472DE9F04106462B
:100290000024D6E90170F5688046304603E0414607
:1002A000B847641C3046A8470028F8D12046BDE86E
:1002B000F08110B50446AFF300802046BDE8104041
:1002C000FFF75BBF00487047D40000200F488069EB
:1002D00040F008000D4988610846806940F0400000
:1002E00088610B48006820F47000094908600846DE
:1002F000006840F44010086005480C30006840F089
:10030000200003490C3108607047000000100240D3
:10031000000C014000B5002015490861C860142098
:10032000486100208861C8610846006840F001000B
:100330000860084640680F4908400D494860084673
:1003400000680D4908400A4908600846006820F422
:10035000802008600846406820F4FE0048600020C5
:10036000886000214FF0006000F058F800BD0000E8
:10037000001002400000FFF8FFFFF6FE2DE9F041FB
:100380000746884614461D46284600F033F8C5F156
:10039000040007FA00F60F20284100EA080006438F
:1003A00006F00F06E21704EBD2625211920002F13E
:1003B000E022D2F800212146E31704EBD3635B115E
:1003C000A4EB431C012303FA0CF31A432046E31762
:1003D00004EBD3635B119B0003F1E023C3F800211E
:1003E0000348005D40EA061001490855BDE8F08168
:1003F00000E400E00146072323EA01021202054B54
:1004000018684FF6FF031840034B18431043014B85
:10041000186070470CED00E00000FA05024A0A403F
:100420000243024B1A60704780FFFF1F08ED00E097
:1004300030B504460025FFF76DFF1F48006840F403
:1004400080301D49086000BF1B480068400C002830
:10045000FAD04FF4806018494860A01EC4B2084624
:10046000406840EA844048600846406840F4803074
:1004700048601248006840F03200104908600E4899
:10048000006840F080700C49086000BF0A480068AE
:10049000400E0028FAD00848406840F002000649A3
:1004A000486005E004484068C0F3870505F003058F
:1004B000022DF7D130BD00000010024000200240A4
:1004C0001D49098801F0200111B31B49091D098844
:1004D000C8B21A49098801F40041C9B91749098805
:1004E00001F4804161B10A2803D00021134A118030
:1004F00020E01249098841F40041104A118019E0B6
:100500000D2806D10D49098841F480410B4A11801C
:1005100010E00A490988C1F30D01094A50540749FE
:100520000988491C054A118011460988C72901DD3F
:1005300000211180704700000038014008000020B1
:100540000C00002000BF70474FF0E021096921F046
:1005500004014FF0E0221161C21700EB5272C2F3A6
:10056000C702074B1A701946097801EB4102C2EB2A
:10057000C1114FF6FF7202EAC101024A11807047B1
:10058000000000200200002001460D4A12884A4364
:100590004FF0E0235A6100229A6101221A6100BFE4
:1005A0004FF0E022106900F001021AB100F480322D
:1005B000002AF5D000224FF0E0231A619A617047BB
:1005C0000200002000BF054A128802F04002002A03
:1005D000F9D0C2B2014B1B1D1A8070470038014090
:1005E00000250920FFF724FF4820FFF7ADFF4FF457
:1005F000E131482000F06AF8FFF768FE43E0224846
:10060000008800F40040F8B11F480088C0F30D06D0
:100610001EA0FFF7D7FD00240DE02248005D22490F
:10062000088000BF2048001F008800F0400000281C
:10063000F8D0601C84B2B442EFDB1CA0FFF7C2FD0F
:100640000020114908801EE0681C85B2C82095FB77
:10065000F0F100FB115010B916A0FFF7B3FD0A200E
:10066000FFF792FF1E2095FBF0F100FB115038B907
:100670001548006808B9012000E000201249086010
:100680000A20FFF781FFBAE7080000200D0A204882
:10069000656C6C6F2057696E646F777321200D0A4B
:1006A0000D0A00000C000020043801400D0A0D0A5C
:1006B0000000000048656C6C6F2057696E646F77AE
:1006C00073210D0A00000000948121422DE9F05FA2
:1006D00005460E46300100F0ABF981462E4905FB78
:1006E00001F000F0A5F98246494600F0BFF8074640
:1006F000384600F07DF984B2204600F099F983462F
:10070000394600F075FA82464FF0834100F0A4F9B3
:10071000814600F06DF980464FF6FF7000EA041440
:1007200004EB080084B21D48806940F004001B49B6
:1007300088610846806940F48040886118480068F4
:1007400020F47F60164908600846006840F40B609A
:1007500008601248C06840F480401049C8600846EC
:10076000C06820F48040C8600E480480001D0088E6
:1007700042F20C0108430B49091D08800846008815
:1007800040F0200008800223252203210846FFF7BD
:10079000F5FDBDE8F09F000040420F000010024050
:1007A000040801400838014090EA010F48BF81F079
:1007B000004100F12E82421A3CBF801A89184FEA8C
:1007C000D0524FF07F4C1CEA410FA2EBD15318BF1F
:1007D0009CEA026F00F03B804FF0004C4CEA002096
:1007E0004CEA012121FA03FC10EB0C0C1ED202F1A1
:1007F000FF325FEA1C2040EBC25038BF70471CF04C
:100800007F0F4FEA400C18BFBCF17F4F38BF7047D5
:10081000C3F12003994008BF20F00100BCF17F4FD5
:1008200038BF7047A0F1C04000F0DDB94FEA3C008E
:10083000000A40EBC25028BF1CF0FF0F4FEA400CEB
:10084000E6D018BFBCF17F4F38BF7047EAE79CEA9B
:10085000026F05D010EA5C0F08BF00F0004070473F
:1008600010B500F07AF900BF64FBBE3E4FF47F0C78
:100870001CEAD0121EBF1CEAD11392EA0C0F93EAB5
:100880000C0F00F0858090EA010F48BF42F480729F
:1008900040F4000C41F400002CF07F4120F07F4038
:1008A00000B58142A2EB03020FF2081CACEB504EE4
:1008B000C0F100009EF800E04FEA4E0E00FB0EFC77
:1008C00038BF49004FEA2C1C02F5FA020CFB0EF36C
:1008D0004FEACE1E4FEA112C4FEAC1210EEB635EA8
:1008E00042EB22420EFB0CFC4FEA1C5300FB0311AF
:1008F0004FEA112C4FEA01310EFB0CFC4FEADC4CA5
:1009000000FB0C11C14228BF09184CEB03335DF802
:1009100004EB10EB410143EBC250B2F57C0F38BF42
:10092000704729D512F0F00F1CBF00F1C04000F055
:1009300000407047008182838485868788898B8CFC
:100940008D8E8F919293959697999A9C9D9FA0A238
:10095000A3A5A7A8AAACAEB0B2B3B5B7B9BCBEC088
:10096000C2C5C7C9CCCED1D4D7D9DCDFE2E6E9EC29
:10097000F0F3F7FAFE0000004FEA400C0CF1807C27
:10098000BCF17E4F28BF7047B0F1C04000F02BB9DA
:1009900090EA010F0CEAD11348BF42F4807262451D
:1009A00038BF634507D213F47F0F16D080EA0100E9
:1009B00000F00040704710B500F0CFF8097EFC3E13
:1009C00000F005B880EA010000F00040704780EABE
:1009D000010000F0004000F006B912F47F0F04BFE0
:1009E0000248704780EA010000F0FDB80000C07FB7
:1009F000C10DD1F19E0206DB4FEA002343F0004314
:100A000023FA02F07047004207D54FEA4001B1F1E6
:100A1000FE4F02D24FF00000704710B500F09DF875
:100A200049922480002070476FEA20007047000040
:100A3000B0FA80F310FA03F2C3F19D030AD0D9058E
:100A400001EB1220530638BF704700F1010008BFC8
:100A500020F00100704700004FF47F0C1CEAD01218
:100A60001EBF1CEAD11392EA0C0F93EA0C0F00F0A0
:100A7000478090EA010F48BF42F480724FF0004C6B
:100A80004CEA00204CEA012102EB0302A0FB011317
:100A9000A2F50002002918BF43F001035B0028BF44
:100AA0004FEA330342EB22425FEA132C4CEBC25075
:100AB0002EBFBCEB436FB2F57C0F70474FEA036C5F
:100AC000BCF1004F08BF20F00100B2F57C0F38BF29
:100AD00070470BD582F0FF0212F5803FC8BF704708
:100AE00000F1C040D8BF00F00040704700F5000C96
:100AF0005FEA4C0C48BF7047B0F1C04000F073B8DB
:100B000090EA010F0CEAD11348BF42F480726245AB
:100B100038BF634504D280EA010000F0004070470E
:100B200010B500F01AF800BF8900013E00F007B8C8
:100B300000F009B85FEA410C5FEA1C6C08D080EA5B
:100B4000010000F050B85FEA400C5FEA1C6CF6D17F
:100B50004FF00040A0F5800070470EF1020E2EF01D
:100B6000030E5EF8044B244204D44FEA4102B2F172
:100B70007F4F11D84FEA4003B3F17F4F0CD80ED10D
:100B80004FEAD07CB2F17F4F0CEB4C0C0CF1020C15
:100B900008BF4CEBD17C04E04FF0080C01E04FEAB9
:100BA000D17C0CEB4C0324FA03F404F00704B4F1F9
:100BB000040C06D20EEB840CBDE810404CF0010C86
:100BC0006047DFE80CF0070802024FF00040A0F594
:100BD000800010BD0846420018BFD2F1807288BF65
:100BE00000F0004010BDFF2141EAD050C005704721
:100BF00080F0004090EA010F7FF5DDAD81F000410B
:100C000000F007B890EA010F48BF81F000413FF5BE
:100C1000D2AD421A04D882F00042A0EB0200114487
:100C20004FEAD0524FF07F4C1CEA410FA2EBD15358
:100C300018BF9CEA026F4AD04FF0004C4CEA0020EB
:100C40004CEA012121FA03FCB0EB0C0C0FD412F09A
:100C5000FE0F36D05FEA4C001DD5001240EBC250AB
:100C600038BF70471CF03F0F18BF70470BE0A2F170
:100C700001025FEA1C2040EBC25038BF70471CF0F5
:100C80007F0F18BF7047C3F12003994014BF401E67
:100C900020F00100704780084FEA122308BF704718
:100CA000B0FA80FCA2EB0C02CCF1280C60FA0CF03C
:100CB00093EA122F04BF00EBC25070474FEAC37093
:100CC0007047130A5FEADC1008BF7047F6E79CEA3A
:100CD000026F04D010EA5C0F08BF0020704710B507
:100CE000FFF73BFF40DFF63E81F000407047000019
:100CF000100D0008000000200C0000002801000872
:100D00001C0D00080C0000202C0700004401000806
:0C0D1000000000000000000000000000D7
:04000005080000ED02
:00000001FF
