:020000040800F2
:10000000D8070020890100086B11000801110008C1
:1000100069110008610300082514000800000000B1
:100020000000000000000000000000006F11000848
:1000300063030008000000006D1100087111000842
:10004000A3010008A3010008A3010008A301000800
:10005000A3010008A3010008A3010008A3010008F0
:10006000A3010008A3010008A3010008A3010008E0
:10007000A3010008A3010008A3010008A3010008D0
:10008000A3010008A3010008A3010008A3010008C0
:10009000A3010008A3010008A3010008A3010008B0
:1000A000A3010008A3010008A3010008A3010008A0
:1000B000A3010008A3010008A3010008A301000890
:1000C000A3010008A3010008A3010008A301000880
:1000D000A301000819140008A3010008A3010008E7
:1000E000A3010008A3010008A301000800F002F822
:1000F00000F03AF80AA090E8000C82448344AAF188
:100100000107DA4501D100F02FF8AFF2090EBAE885
:100110000F0013F0010F18BFFB1A43F0010318473B
:10012000AC130000CC130000103A24BF78C878C18B
:10013000FAD8520724BF30C830C144BF04680C60ED
:10014000704700000023002400250026103A28BF35
:1001500078C1FBD8520728BF30C148BF0B60704739
:100160001FB51FBD10B510BD00F0B4F81146FFF764
:10017000F7FF01F075F900F0E6F803B4FFF7F2FFBE
:1001800003BC01F060F900000948804709480047B6
:10019000FEE7FEE7FEE7FEE7FEE7FEE7FEE7FEE737
:1001A000FEE7FEE704480549054A064B7047000094
:1001B000CB110008ED000008D8010020D80700206E
:1001C000D8030020D80300200FB4044910B503AAB7
:1001D000029800F051F810BC5DF814FB1C000020E0
:1001E0004FF000020429C0F0128010F0030C00F060
:1001F0001B80CCF1040CBCF1020F18BF00F8012BDE
:10020000A8BF20F8022BA1EB0C0100F00DB85FEAAB
:10021000C17C24BF00F8012B00F8012B48BF00F877
:10022000012B70474FF0000200B5134694469646E6
:10023000203922BFA0E80C50A0E80C50B1F12001F9
:10024000BFF4F7AF090728BFA0E80C5048BF0CC0A7
:100250005DF804EB890028BF40F8042B08BF704705
:1002600048BF20F8022B11F0804F18BF00F8012B77
:100270007047704770477047074B70B50D467B4419
:1002800000F011F80446284600F020F810B14FF0B5
:10029000FF3070BD204670BDC711000001694A1CC7
:1002A00002610878704700B58FB0CDE901310021B7
:1002B000059105497944CDE903101146684600F0DF
:1002C0002EF80FB000BD0000E5FFFFFF007B00F03F
:1002D00080007047754600F03FF8AE46050069465D
:1002E000534620F00700854618B020B5FFF75AFFA7
:1002F000BDE820404FF000064FF000074FF0000827
:100300004FF0000B21F00701AC46ACE8C009ACE8A7
:10031000C009ACE8C009ACE8C0098D4670472DE9BA
:10032000F04106460024D6E90170F5688046304663
:1003300003E04146B847641C3046A8470028F8D17E
:100340002046BDE8F08110B50446AFF3008020469A
:10035000BDE81040FFF711BF00487047740100204E
:10036000FEE7704772B6FEE710B590F82110002244
:10037000022905D00421816380F82020012010BDCE
:1003800001680B6823F00E030B6001680B6823F013
:1003900001030B6090F84030C46B012101FA03F3B4
:1003A000636080F8211080F82020104610BD000006
:1003B00010B590F821100024022903D00421816394
:1003C00001243DE001680A6822F00E020A6001681B
:1003D0000A6822F001020A601A4A0168914201D1BA
:1003E000012121E0174A1432914201D110211BE072
:1003F000144A2832914201D1891515E0114A3C3244
:10040000914201D189140FE00E4A5032914202D13B
:100410004FF4803108E00B4A6432914202D14FF42C
:10042000801101E04FF08071064A083A51600121C5
:1004300080F82110002180F82010416B01B188471D
:10044000204610BD0800024070B5044600F0FEF8DA
:100450000546601C02D004480078044400F0F6F819
:10046000401BA042FAD370BD200000202DE9F84FB8
:10047000DFF8B891002409F1040A0AF1040B2346BD
:100480000F270BF1040EC9E00125A5402A40AA421E
:100490007DD1674ED1F804C0ACEB0608B44532D02C
:1004A00014DCBCF1030F3AD009DCBCF1000F2AD0F8
:1004B000BCF1010F1CD0BCF1020F31D11DE0BCF129
:1004C000110F17D0BCF1120F2AD119E0B8F5881F0F
:1004D00019D006DCB8F5803F15D0B8F5801F1FD1C4
:1004E00011E0B8F5001F0ED0B8F5041F18D10AE0CE
:1004F000CB6815E0CB681B1D12E0CB6808330FE01A
:10050000CB680C330CE08B682BB1012B4FF0080348
:1005100003D0456104E0042302E0056100E000230C
:10052000FF2A01D8064601E000F104064FEA8405DF
:1005300001D9A5F12005D6F8008007FA05FC28EAC4
:100540000C0803FA05F548EA0508C6F800804D686E
:10055000ED0062D5374DAE6946F00106AE61AD697A
:1005600024F0030605F001050095334D06EB050C5C
:10057000DCF80850A607360F07FA06F825EA080542
:10058000DFF8B880404503D14FF0000817E044E0A1
:10059000DFF8AC80404502D14FF001080FE0DFF8F2
:1005A000A480404502D14FF0020808E0DFF89880AF
:1005B000404502D14FF0030801E04FF0040808FA6B
:1005C00006F848EA0508CCF808804D68D9F80060BC
:1005D000ED034D4601D5164300E096432E604D686D
:1005E000DAF80060AD03554601D5164300E09643A6
:1005F0002E604D68DBF80060ED025D4601D51643C4
:1006000000E096432E604D68DEF80060AD0275464E
:1006100001D5164300E096432E60641C0D682A46FF
:10062000E5407FF431AFBDE8F88F000000040140E1
:1006300000001110001002400000014000080140BD
:10064000000C014000100140001401400148806886
:1006500070470000200000200248816802781144A1
:100660008160704720000020074810B5016841F004
:1006700010010160032000F06DF80F2000F006F873
:1006800000F024F8002010BD0020024070B50D4D90
:1006900004464FF47A712878B1FBF0F00A490968F2
:1006A000B1FBF0F000F0E4FA48B9102C07D20022B8
:1006B0002146501E00F02EF800206C6070BD012015
:1006C00070BD0000200000202C000020094808B563
:1006D000816941F001018161816901F001010091AD
:1006E000C16941F08051C161C06900F08050009043
:1006F00008BD000000100240002809DB00F01F02C6
:10070000012191404009800000F1E020C0F8001173
:1007100070470000F0B40E4B1B680C46C3F3022375
:10072000C3F10705042D00D90425191D072901D29D
:10073000002300E0DB1E012606FA05F1491E2140D8
:1007400099409E40761E16403143F0BC00F06BBECF
:100750000CED00E0064900F0070208684FF6FF03C1
:10076000184040EA0220034A104308607047000026
:100770000CED00E00000FA052DE9F0470F460500FA
:1007800061D0434E306800F00700B84209D23068AB
:1007900020F0070038433060306800F00700B842AE
:1007A00051D128683B4C810712D5400703D56068BA
:1007B00040F4E06060602878000703D5606840F48A
:1007C000605060606068A96820F0F00008436060D5
:1007D0002878C00728D06868012810D0216802282E
:1007E00010D0890700292EDA616821F00301014346
:1007F0006160FFF72BFF804641F288390DE02168E8
:100800008903EFE78901EDE7FFF720FFA0EB08017F
:10081000494502D90320BDE8F0876068696800F0A7
:100820000C00B0EB810FEFD1306800F00700B84248
:100830000BD9306820F0070038433060306800F092
:100840000700B84201D00120E5E72878400705D528
:100850006068E96820F4E060084360602878000779
:1008600006D56068296920F4605040EAC1006060E4
:1008700000F038F86168084AC1F30311515CC840C0
:100880000649086006480068FFF700FF0020C2E73D
:100890000020024000100240B41400082C00002088
:1008A000240000200448054900684968044AC1F34F
:1008B0000221515CC84070472C000020001002400B
:1008C000C41400080448054900684968044AC1F393
:1008D000C221515CC84070472C000020001002402B
:1008E000C414000812A185B00FC98DE80F0014A030
:1008F000144A006804905168134801F00C03042B5B
:1009000010D0082B0ED1C1F38343C9031DF8030097
:100910000AD5516804AAC1F34041515C0A4A5043C8
:10092000B0FBF1F005B0704708494843FAE7000012
:1009300002030405060708090A0B0C0D0E0F101020
:10094000010200000010024000127A0000093D0080
:100950002DE9F84F040070D02078C04DC00749D071
:100960006868C0F38100012807D06868C0F381007F
:10097000022809D16868C00306D52868800339D5E4
:1009800060680028E7D035E06068B0F5803F0BD0A4
:1009900010B1B0F5A02F11D0286820F48030286065
:1009A000286820F4802002E0286840F48030286025
:1009B000606890B1FFF74AFE06460AE0286840F4F6
:1009C00080202860F0E700BFFFF740FE801B64280E
:1009D00073D828688003F7D50CE0FFF737FE06468A
:1009E00005E000BFFFF732FE801B6428F0D82868BE
:1009F0008003F7D420789A4E80074FF001094FF01A
:100A0000000839D5686810F00C0F07D06868C0F38B
:100A10008100022809D16868C00306D428688007CD
:100A200014D52069012808D110E02069B0B1C6F8BA
:100A30000090FFF70BFE074605E00AE1FFF706FE10
:100A4000C01B0228C4D828688007F7D528686169C8
:100A500020F0F80040EAC10028600DE0C6F80080F0
:100A6000FFF7F4FD074604E0FFF7F0FDC01B022886
:100A700023D828688007F7D4207800072CD5794838
:100A8000A169D9B1C0F80090FFF7E0FD074604E086
:100A9000FFF7DCFDC01B02280FD8686A8007F7D576
:100AA00071484FF4FA510068B0FBF1F0009000BFBC
:100AB0000098411E0091FAD20EE080E0C0F800805C
:100AC000FFF7C4FD074604E0FFF7C0FDC01B022886
:100AD00075D8686A8007F7D42078400760D5E86940
:100AE0000027C00008D4E86940F08050E861E86958
:100AF000012700F0805000905C480168C90513D4BC
:100B00000168834641F480710160FFF79FFD8246D2
:100B100006E000BFFFF79AFDA0EB0A0064284ED85C
:100B2000DBF80000C005F5D5E06801280AD008B15F
:100B3000052813D0286A20F001002862286A20F0D6
:100B4000040002E0286A40F001002862E06841F2F7
:100B5000883B98B1FFF77AFD82460BE0286A40F0A7
:100B600004002862EEE700BFFFF770FDA0EB0A016A
:100B700059455AD8286A8007F6D50CE0FFF766FD7C
:100B8000824605E0FFF762FDA0EB0A0159454CD80B
:100B9000286A8007F6D41FB1E86920F08050E86128
:100BA000E06988B36968C1F38101022944D0022851
:100BB000C6F8608004D0FFF749FD044638E034E011
:100BC000FFF744FD074604E0FFF740FDC01B022885
:100BD0002BD828688001F7D4206AB0F5803F05D172
:100BE0006868A16820F4003008436860D4E908010F
:100BF0000843696821F4741108436860C6F860907E
:100C0000FFF724FD044606E025E000BFFFF71EFDC8
:100C1000001B022809D828688001F7D51BE000BF17
:100C2000FFF714FD001B022802D90320BDE8F88F4E
:100C300028688001F4D40EE00128F7D06868226AA1
:100C400000F48031914204D1616A00F4701088424E
:100C500001D00120EAE70020E8E700000010024090
:100C600000004242800442422C00002000700040FC
:100C700010B5401EB0F1807F01D3012010BD4FF0B0
:100C8000E02460610F21601700F0CDFB0020A0611F
:100C900007202061002010BD70477047F8B502683A
:100CA00004461068D168536910F00F0F4FF000052B
:100CB00053D003F0010601F4907737435FD0C207A9
:100CC00005D0CA0503D5226C42F001022264420716
:100CD00005D5DA0703D0226C42F0020222648207B3
:100CE00005D5DA0703D0226C42F004022264020721
:100CF00007D501F02002324303D0226C42F00802F3
:100D00002264226C002A34D0800604D5880602D5DD
:100D1000204600F07BFA20684069216CC0F3801007
:100D2000090700D430B3204600F058FA2068416922
:100D300049061BD5416921F040014161A06BA8B172
:100D400058494163A06BFFF733FB002811D0A06B1B
:100D5000416B01B0BDE8F040084783060FD58B0614
:100D60000DD52046BDE8F84000F050BA2046FFF708
:100D700094FFF8BD2046FFF790FF2564F8BD266B71
:100D80002023012E52D1C60650D5CE064ED510686E
:100D900050680090506940062AD5A16B08684068E9
:100DA0000004000CEAD0A68D8642E7D9E085886968
:100DB000202818D0D06820F48070D0602068416965
:100DC00021F0010141612068416921F04001416148
:100DD00084F83E3025632068C16821F01001C160AD
:100DE000A06BFFF7C1FAA08DE18D401A81B219E026
:100DF000A08DE18D401A81B2E08D0028BED000297F
:100E0000BCD0D06820F49070D0602068426922F095
:100E10000102426184F83E3025632068C26822F0F6
:100E20001002C2602046FFF737FFF8BD05062BD53C
:100E30000D0629D594F83D002128F6D1A068B0F51B
:100E4000805F01D12069B0B1206A411C2162216814
:100E500000784860E08C401E0004000CE084E4D17F
:100E60002068C16821F08001C1602068C16841F03C
:100E70004001C160F8BD206A0088C0F308005060DE
:100E8000206A801C2062E5E74006F3D54806F1D5CC
:100E9000D168204621F04001D16084F83D3000F057
:100EA0002EF9F8BDCD11000870B5040004D094F8F7
:100EB0003D00002510B106E0012070BD84F83C50D3
:100EC000204600F023F8242084F83D002068C16803
:100ED00021F40051C160204600F0F4F92068016956
:100EE00021F4904101612068416921F02A014161AA
:100EF0002068C16841F40051C1602564202084F855
:100F00003D0084F83E00002070BD000030B585B083
:100F100000240094019402940394006818498842C4
:100F20002CD11848816941F480418161816901F4C3
:100F300080410491816941F0040181618069124D11
:100F400000F0040004904FF4007000900220019023
:100F50000320039069462846FFF788FA2815CDE953
:100F60000004694628460294FFF780FA00221146E1
:100F70002520FFF7CFFB2520FFF7BEFB05B030BDD6
:100F800000380140001002400008014090F83E3057
:100F9000202B0ED159B152B190F83C30012B08D022
:100FA000012380F83C300023036300F0E7B90120FF
:100FB00070470220704700002DE9F04120480025CD
:100FC000204C0178732902D0742902D003E06560B7
:100FD00001E00121616021784FF480764FF6FF77C0
:100FE000FF290CD3257031461548FFF7F9F815494C
:100FF0003B4614220831144800F028F817E06278C4
:101000004254491CCAB21044227010F8011C0A292B
:101010000DD110F8020C0D2809D13B4608490A48A9
:1010200000F014F8257031460548FFF7D9F8BDE8FF
:10103000F04104490122491C0348FFF7A7BF000003
:101040003000002000000020300100202DE9F8438E
:10105000044690F83D001F4616460D4620284CD108
:10106000C5B1BEB194F83C00012846D0012084F8F7
:101070003C004FF00008C4F84080212084F83D0077
:10108000FFF7E4FAA6848146E684A068B0F5805FA5
:1010900003D004E00120BDE8F883206928B12E4682
:1010A0005FF0000584F83C800EE00026FAE780211E
:1010B000204600F07EF9A0B9AEB116F8010B216808
:1010C0004860E08C401EE084E08C4B464FF000020C
:1010D00000970028EBD14FF04001204600F069F95D
:1010E00030B10320D7E735F8020BC0F30800E6E77C
:1010F000202084F83D000020CDE70220CBE7704798
:10110000FEE70000094808B5816941F020018161CE
:10111000816901F020010091816941F00401816140
:10112000806900F00400009008BD0000001002403B
:101130000C4810B50A4901604FF4E13141600021CB
:1011400081600C22C160C0E904128161C161FFF7B6
:10115000ABFE002803D0BDE81040FFF703B910BD77
:101160000038014030010020FEE7FEE7704770477D
:10117000FFF772BA30B58FB028216846FFF752F8F2
:1011800014210AA8FFF74EF8012108040024049155
:10119000CDE90010CDE908040294022507956846C0
:1011A000FFF7D6FB08B172B6FEE70F200A90CDE933
:1011B0000B540D9400210AA80E94FFF7DDFA0028C5
:1011C00001D072B6FEE70FB030BD704710B5406A6F
:1011D0000021C185C184FFF760FD10BD0168CA68A8
:1011E00022F49072CA6001684A6922F001024A61E1
:1011F000016B012904D10168CA6822F01002CA609B
:10120000202180F83E1000210163704708B590F856
:101210003E10222901D0022008BD82684FF480537D
:101220009A4201D1016921B1816A9A421BD04AB127
:101230000AE00268816A5268C2F308020A80816A81
:10124000891C08E0026972B10268526802F07F02EC
:101250000A70816A491C8162C18D491E0904090C0A
:10126000C18503D019E002685268F1E70168CA68D5
:1012700022F02002CA600168CA6822F48072CA6043
:1012800001684A6922F001024A61202180F83E107B
:10129000016B012903D0FFF78FFE002008BD00215C
:1012A00001630168CA6822F01002CA6001680A6816
:1012B000D20602D50A6849680091818DFFF7ECFCDF
:1012C000EBE7000070B5044600680169E26821F4AC
:1012D0004051114301612169A068084361690843D5
:1012E0002168CA6841F20C639A430243CA602068CD
:1012F0004169A26921F44071114341611E4920688E
:10130000884202D1FFF7DEFA01E0FFF7CBFA00EBEB
:10131000C00101EB0012606864218000B2FBF0F3B1
:10132000B3FBF1F36FF018067343B2FBF0F5B2FBB9
:10133000F0F605EB8305322303EB0515B5FBF1F55C
:10134000B6FBF1F605F0F00505EB0615B2FBF0F67D
:10135000B2FBF0F0B0FBF1F06FF01802504306EB77
:10136000800003EB0010B0FBF1F0216800F00F00EB
:101370002844886070BD0000003801408162828589
:10138000C28500210164222280F83E2080F83C10B2
:101390000168CA6842F48072CA6001684A6942F012
:1013A00001024A610068C16841F02001C16000206B
:1013B00070472DE9F041984617460E460446069DB3
:1013C0001DE0681C1BD02DB1FFF740F9A0EB080011
:1013D000A84214D92068C16821F4D071C160206886
:1013E000416921F001014161202084F83D0084F829
:1013F0003E00002084F83C000320BDE8F081206816
:10140000006836EA000004D00020B842D9D000209D
:10141000F3E70120F9E700000148FFF73FBC0000B7
:1014200030010020FEE70907090E002804DB00F167
:10143000E02080F80014704700F00F0000F1E02079
:1014400080F8141D7047704713B501231A4669468A
:101450000248FFF7FBFD00981CBD00003001002092
:10146000FFF702F9FFF786FEFFF74CFEFFF760FE7D
:10147000012209490948FFF789FD074D4FF4FA7425
:101480006D1E68680128FCD105A0FEF79DFE204670
:10149000FEF7DAFFF5E70000010000203001002030
:1014A00048656C6C6F2077696E646F7773210D0AE5
:1014B0000000000000000000000000000102030422
:1014C000060708090000000001020304EC140008EC
:1014D0000000002030000000280100081C15000852
:1014E00030000020A80700004401000800000000B0
:1014F00001000000CAFDBEDDD2E7B3F628B4F3D385
:10150000DA323536290D0A00000000000100000023
:0C15100010000000000000000024F400A7
:04000005080000ED02
:00000001FF
