:020000040800F2
:100000008007002089010008DF120008091200089B
:10001000DD1200088F0200089115000800000000A2
:10002000000000000000000000000000E3120008D3
:10003000D302000800000000E1120008E5120008E9
:10004000A3010008A3010008A3010008A301000800
:10005000A3010008A3010008A3010008A3010008F0
:10006000A3010008A3010008A3010008A3010008E0
:10007000A3010008A3010008910200089D020008E6
:10008000A3010008A3010008A3010008A3010008C0
:10009000A3010008A3010008A3010008A3010008B0
:1000A000A3010008A3010008A3010008A3010008A0
:1000B000A3010008A3010008A3010008A301000890
:1000C000A3010008A3010008A3010008A301000880
:1000D000A301000885150008A3010008A30100087A
:1000E000A3010008A3010008A301000800F002F822
:1000F00000F03AF80AA090E8000C82448344AAF188
:100100000107DA4501D100F02FF8AFF2090EBAE885
:100110000F0013F0010F18BFFB1A43F0010318473B
:10012000F414000014150000103A24BF78C878C1F8
:10013000FAD8520724BF30C830C144BF04680C60ED
:10014000704700000023002400250026103A28BF35
:1001500078C1FBD8520728BF30C148BF0B60704739
:100160001FB51FBD10B510BD00F058F81146FFF7C0
:10017000F7FF01F01FFA00F076F803B4FFF7F2FF83
:1001800003BC00F07DF8000009488047094800479B
:10019000FEE7FEE7FEE7FEE7FEE7FEE7FEE7FEE737
:1001A000FEE7FEE704480549054A064B7047000094
:1001B0003F130008ED0000088001002080070020A8
:1001C00080030020800300204FF0000200B513469A
:1001D00094469646203922BFA0E80C50A0E80C5067
:1001E000B1F12001BFF4F7AF090728BFA0E80C5018
:1001F00048BF0CC05DF804EB890028BF40F8042B11
:1002000008BF704748BF20F8022B11F0804F18BF7D
:1002100000F8012B7047704770477047754600F033
:100220002BF8AE4605006946534620F00700854688
:1002300018B020B5FFF7B6FFBDE820404FF000062C
:100240004FF000074FF000084FF0000B21F00701BE
:10025000AC46ACE8C009ACE8C009ACE8C009ACE801
:10026000C0098D46704710B50446AFF300802046A4
:10027000BDE81040FFF781BF004870472001002013
:1002800001491820ABBEFEE7260002007047FEE7DA
:10029000014800F091B80000DC000020014800F0A7
:1002A0008BB800009800002030B590F84050012431
:1002B000AC40C56B6C60046863604368102B0368D6
:1002C00003D099600068C26030BD9A600068C16068
:1002D00030BD704772B6FEE710B590F821100022CD
:1002E000022905D00421816380F82020012010BD5F
:1002F00001680B6823F00E030B6001680B6823F0A4
:1003000001030B6090F84030C46B012101FA03F344
:10031000636080F8211080F82020104610BD000096
:1003200010B590F821100024022903D00421816324
:1003300001243DE001680A6822F00E020A600168AB
:100340000A6822F001020A601A4A0168914201D14A
:10035000012121E0174A1432914201D110211BE002
:10036000144A2832914201D1891515E0114A3C32D4
:10037000914201D189140FE00E4A5032914202D1CC
:100380004FF4803108E00B4A6432914202D14FF4BD
:10039000801101E04FF08071064A083A5160012156
:1003A00080F82110002180F82010416B01B18847AE
:1003B000204610BD080002402DE9F05FC16B0C68BB
:1003C00001680B68D0F840C0042202FA0CF2494DD3
:1003D000DFF824A1494E4A4FDFF828B1DFF828E1C1
:1003E00022422CD05A072AD50A68920603D40A68FA
:1003F00022F004020A600168A94201D1042219E036
:10040000514501D1402215E0B14202D14FF4806242
:1004100010E0B94202D14FF480420BE0594502D1BD
:100420004FF4802206E0714502D14FF4800201E0D2
:100430004FF080622F4908394A60C16A3BE04FF0B3
:10044000020808FA0CF818EA040F4FF000094FF000
:10045000010235D05FEA837832D50B689B0605D45C
:100460000B6823F00A030B6080F821200168A94281
:1004700001D1022219E0514501D1202215E0B142FB
:1004800002D14FF4007210E0B94202D14FF4005291
:100490000BE0594502D14FF4003206E0714502D11C
:1004A0004FF4001201E04FF00072124908394A601F
:1004B00080F82090816A00291AD0BDE8F05F0847D3
:1004C000082505FA0CF5254212D01B0710D50B683C
:1004D00023F00E030B6090F84010C36B02FA01F199
:1004E0005960826380F8212080F82090016BE2E758
:1004F000BDE8F09F080002401C00024030000240AE
:1005000044000240580002406C00024030B528B35D
:1005100008C8134914221944B1FBF2F18900C163E0
:1005200010498163022141771A6843F6F0718A43CA
:10053000D0E900142143D0E902452C43214304694A
:1005400021434469214384692143114319600021F7
:100550004163012242770177084630BD012030BD5A
:10056000F8FFFDBF0000024070B5044690F820007F
:10057000002501280CD0012084F8200094F8216087
:100580000020012E06D084F820000225284670BDE8
:10059000022070BD022684F82160A06320680668EE
:1005A00026F0010606602046FFF77EFEE06A00287E
:1005B0002068016802D041F00E0106E021F004013C
:1005C00001602068016841F00A010160206801684B
:1005D00041F001010160D9E770B5044600F0FEF872
:1005E0000546601C02D004480078044400F0F6F888
:1005F000401BA042FAD370BD000000202DE9F84F47
:10060000DFF8B891002409F1040A0AF1040B23462B
:100610000F270BF1040EC9E00125A5402A40AA428C
:100620007DD1674ED1F804C0ACEB0608B44532D09A
:1006300014DCBCF1030F3AD009DCBCF1000F2AD066
:10064000BCF1010F1CD0BCF1020F31D11DE0BCF197
:10065000110F17D0BCF1120F2AD119E0B8F5881F7D
:1006600019D006DCB8F5803F15D0B8F5801F1FD132
:1006700011E0B8F5001F0ED0B8F5041F18D10AE03C
:10068000CB6815E0CB681B1D12E0CB6808330FE088
:10069000CB680C330CE08B682BB1012B4FF00803B7
:1006A00003D0456104E0042302E0056100E000237B
:1006B000FF2A01D8064601E000F104064FEA84054E
:1006C00001D9A5F12005D6F8008007FA05FC28EA33
:1006D0000C0803FA05F548EA0508C6F800804D68DD
:1006E000ED0062D5374DAE6946F00106AE61AD69E9
:1006F00024F0030605F001050095334D06EB050CCB
:10070000DCF80850A607360F07FA06F825EA0805B0
:10071000DFF8B880404503D14FF0000817E044E00F
:10072000DFF8AC80404502D14FF001080FE0DFF860
:10073000A480404502D14FF0020808E0DFF898801D
:10074000404502D14FF0030801E04FF0040808FAD9
:1007500006F848EA0508CCF808804D68D9F800602A
:10076000ED034D4601D5164300E096432E604D68DB
:10077000DAF80060AD03554601D5164300E0964314
:100780002E604D68DBF80060ED025D4601D5164332
:1007900000E096432E604D68DEF80060AD027546BD
:1007A00001D5164300E096432E60641C0D682A466E
:1007B000E5407FF431AFBDE8F88F00000004014050
:1007C000000011100010024000000140000801402C
:1007D000000C0140001001400014014001488068F5
:1007E0007047000000000020024881680278114430
:1007F0008160704700000020074810B5016841F093
:1008000010010160032000F06DF80F2000F006F8E1
:1008100000F024F8002010BD0020024070B50D4DFE
:1008200004464FF47A712878B1FBF0F00A49096860
:10083000B1FBF0F000F0E4FA48B9102C07D2002226
:100840002146501E00F02EF800206C6070BD012083
:1008500070BD0000000000200C000020094808B511
:10086000816941F001018161816901F0010100911B
:10087000C16941F08051C161C06900F080500090B1
:1008800008BD000000100240002809DB00F01F0234
:10089000012191404009800000F1E020C0F80011E2
:1008A00070470000F0B40E4B1B680C46C3F30223E4
:1008B000C3F10705042D00D90425191D072901D20C
:1008C000002300E0DB1E012606FA05F1491E214047
:1008D00099409E40761E16403143F0BC00F059BE50
:1008E0000CED00E0064900F0070208684FF6FF0330
:1008F000184040EA0220034A104308607047000095
:100900000CED00E00000FA052DE9F0470F46050068
:1009100061D0434E306800F00700B84209D2306819
:1009200020F0070038433060306800F00700B8421C
:1009300051D128683B4C810712D5400703D5606828
:1009400040F4E06060602878000703D5606840F4F8
:10095000605060606068A96820F0F0000843606043
:100960002878C00728D06868012810D0216802289C
:1009700010D0890700292EDA616821F003010143B4
:100980006160FFF72BFF804641F288390DE0216856
:100990008903EFE78901EDE7FFF720FFA0EB0801EE
:1009A000494502D90320BDE8F0876068696800F016
:1009B0000C00B0EB810FEFD1306800F00700B842B7
:1009C0000BD9306820F0070038433060306800F001
:1009D0000700B84201D00120E5E72878400705D597
:1009E0006068E96820F4E0600843606028780007E8
:1009F00006D56068296920F4605040EAC100606053
:100A000000F038F86168084AC1F30311515CC8402E
:100A10000649086006480068FFF700FF0020C2E7AB
:100A20000020024000100240FC1500080C000020CD
:100A3000040000200448054900684968044AC1F3DD
:100A40000221515CC84070470C0000200010024099
:100A50000C1600080448054900684968044AC1F3B7
:100A6000C221515CC84070470C00002000100240B9
:100A70000C16000812A185B00FC98DE80F0014A054
:100A8000144A006804905168134801F00C03042BC9
:100A900010D0082B0ED1C1F38343C9031DF8030006
:100AA0000AD5516804AAC1F34041515C0A4A504337
:100AB000B0FBF1F005B0704708494843FAE7000081
:100AC00002030405060708090A0B0C0D0E0F10108F
:100AD000010200000010024000127A0000093D00EF
:100AE0002DE9F84F040070D02078C04DC00749D0E0
:100AF0006868C0F38100012807D06868C0F38100EE
:100B0000022809D16868C00306D52868800339D552
:100B100060680028E7D035E06068B0F5803F0BD012
:100B200010B1B0F5A02F11D0286820F480302860D3
:100B3000286820F4802002E0286840F48030286093
:100B4000606890B1FFF74AFE06460AE0286840F464
:100B500080202860F0E700BFFFF740FE801B64287C
:100B600073D828688003F7D50CE0FFF737FE0646F8
:100B700005E000BFFFF732FE801B6428F0D828682C
:100B80008003F7D420789A4E80074FF001094FF088
:100B9000000839D5686810F00C0F07D06868C0F3FA
:100BA0008100022809D16868C00306D4286880073C
:100BB00014D52069012808D110E02069B0B1C6F829
:100BC0000090FFF70BFE074605E00AE1FFF706FE7F
:100BD000C01B0228C4D828688007F7D52868616937
:100BE00020F0F80040EAC10028600DE0C6F800805F
:100BF000FFF7F4FD074604E0FFF7F0FDC01B0228F5
:100C000023D828688007F7D4207800072CD57948A6
:100C1000A169D9B1C0F80090FFF7E0FD074604E0F4
:100C2000FFF7DCFDC01B02280FD8686A8007F7D5E4
:100C300071484FF4FA510068B0FBF1F0009000BF2A
:100C40000098411E0091FAD20EE080E0C0F80080CA
:100C5000FFF7C4FD074604E0FFF7C0FDC01B0228F4
:100C600075D8686A8007F7D42078400760D5E869AE
:100C70000027C00008D4E86940F08050E861E869C6
:100C8000012700F0805000905C480168C90513D42A
:100C90000168834641F480710160FFF79FFD824641
:100CA00006E000BFFFF79AFDA0EB0A0064284ED8CB
:100CB000DBF80000C005F5D5E06801280AD008B1CE
:100CC000052813D0286A20F001002862286A20F045
:100CD000040002E0286A40F001002862E06841F266
:100CE000883B98B1FFF77AFD82460BE0286A40F016
:100CF00004002862EEE700BFFFF770FDA0EB0A01D9
:100D000059455AD8286A8007F6D50CE0FFF766FDEA
:100D1000824605E0FFF762FDA0EB0A0159454CD879
:100D2000286A8007F6D41FB1E86920F08050E86196
:100D3000E06988B36968C1F38101022944D00228BF
:100D4000C6F8608004D0FFF749FD044638E034E07F
:100D5000FFF744FD074604E0FFF740FDC01B0228F3
:100D60002BD828688001F7D4206AB0F5803F05D1E0
:100D70006868A16820F4003008436860D4E908017D
:100D80000843696821F4741108436860C6F86090EC
:100D9000FFF724FD044606E025E000BFFFF71EFD37
:100DA000001B022809D828688001F7D51BE000BF86
:100DB000FFF714FD001B022802D90320BDE8F88FBD
:100DC00028688001F4D40EE00128F7D06868226A10
:100DD00000F48031914204D1616A00F470108842BD
:100DE00001D00120EAE70020E8E7000000100240FF
:100DF00000004242800442420C000020007000408B
:100E000010B5401EB0F1807F01D3012010BD4FF01E
:100E1000E02460610F21601700F0BBFB0020A0619F
:100E200007202061002010BD70477047F8B50268A8
:100E300004461068D168536910F00F0F4FF0000599
:100E400053D003F0010601F4907737435FD0C20717
:100E500005D0CA0503D5226C42F001022264420784
:100E600005D5DA0703D0226C42F002022264820721
:100E700005D5DA0703D0226C42F00402226402078F
:100E800007D501F02002324303D0226C42F0080261
:100E90002264226C002A34D0800604D5880602D54C
:100EA000204600F0B7FA20684069216CC0F380103A
:100EB000090700D430B3204600F08BFA206841695E
:100EC00049061BD5416921F040014161A06BA8B1E1
:100ED00058494163A06BFFF723FA002811D0A06B9B
:100EE000416B01B0BDE8F040084783060FD58B0683
:100EF0000DD52046BDE8F84000F08CBA2046FFF73B
:100F000094FFF8BD2046FFF790FF2564F8BD266BDF
:100F10002023012E52D1C60650D5CE064ED51068DC
:100F200050680090506940062AD5A16B0868406857
:100F30000004000CEAD0A68D8642E7D9E0858869D6
:100F4000202818D0D06820F48070D06020684169D3
:100F500021F0010141612068416921F040014161B6
:100F600084F83E3025632068C16821F01001C1601B
:100F7000A06BFFF7B1F9A08DE18D401A81B219E0A5
:100F8000A08DE18D401A81B2E08D0028BED00029ED
:100F9000BCD0D06820F49070D0602068426922F004
:100FA0000102426184F83E3025632068C26822F065
:100FB0001002C2602046FFF737FFF8BD05062BD5AB
:100FC0000D0629D594F83D002128F6D1A068B0F58A
:100FD000805F01D12069B0B1206A411C2162216883
:100FE00000784860E08C401E0004000CE084E4D1EE
:100FF0002068C16821F08001C1602068C16841F0AB
:101000004001C160F8BD206A0088C0F3080050604C
:10101000206A801C2062E5E74006F3D54806F1D53A
:10102000D168204621F04001D16084F83D3000F0C5
:10103000E9F8F8BD4113000870B5040004D094F835
:101040003D00002510B106E0012070BD84F83C5041
:10105000204600F023F8242084F83D002068C16871
:1010600021F40051C160204600F030FA2068016987
:1010700021F4904101612068416921F02A01416118
:101080002068C16841F40051C1602564202084F8C3
:101090003D0084F83E00002070BD00002DE9F041C5
:1010A00086B00024064600940194029403940068DC
:1010B0002E49884257D12E48816941F4804181618F
:1010C000816901F480410491816941F004018161E9
:1010D0008069284D00F0040004904FF400700090E7
:1010E000022001900320039069462846FFF786FA04
:1010F0002815CDE90004694628460294FFF77EFAD8
:101100001E4D1D484FF08008C5E90004C5E902489E
:101110002C6187146C61C5E906472846FFF7F6F98C
:1011200008B1FFF7D7F8B5636E62144D1248443525
:10113000143801C51020A5E81101104845F81049E0
:1011400044306C61C5E90647FFF7E0F908B1FFF7E5
:10115000C1F875630022114625206E62FFF7A2FBDD
:101160002520FFF791FB06B0BDE8F0810038014073
:101170000010024000080140580002409800002082
:101180007047000070B5044690F83D00202830D12B
:1011900069B362B394F83C0001282AD0012084F896
:1011A0003C002162A284E28400252564212084F889
:1011B0003D00636B10489862636B1048D862636BA4
:1011C0000F481863606B134645632668606B321DD9
:1011D000FFF7CAF921686FF04000086084F83C50BE
:1011E0002068416941F080014161002070BD01200B
:1011F00070BD022070BD00009B130008C9130008D9
:101200005113000870477047FEE70000174808B503
:10121000416941F0010141614069154900F0010057
:101220000090144801604FF480414160402181608A
:101230008021C1600021016141618161C161FFF7CD
:1012400065F908B1FFF746F8002211460E20FFF7B6
:1012500029FB0E20FFF718FB002211460F20FFF795
:1012600021FBBDE808400F20FFF70EBB0010024035
:101270000800024010000020094808B5816941F0CB
:1012800020018161816901F020010091816941F0B3
:1012900004018161806900F00400009008BD000035
:1012A000001002400C4810B50A4901604FF4E131CA
:1012B0004160002181600C22C160C0E9041281619B
:1012C000C161FFF7B9FE002803D0BDE81040FFF769
:1012D00001B810BD0038014054000020FEE7FEE7D1
:1012E00070477047FFF780BA30B58FB02821684645
:1012F000FEF76AFF14210AA8FEF766FF0121080421
:1013000000240491CDE90010CDE9080402940225DF
:1013100007956846FFF7E4FB08B172B6FEE70F20B9
:101320000A90CDE90B540D9400210AA80E94FFF702
:10133000EBFA002801D072B6FEE70FB030BD70475F
:1013400010B5406A0021C185C184FFF76EFD10BD54
:1013500070B5446A2068406994F83D10C0F3C0102D
:101360000025212904D118B1E584204600F049F870
:101370002068406994F83E10C0F38010222904D1FF
:1013800018B1E585204600F024F8206C40F01000EC
:1013900020642046FFF749FD70BD10B50146406A44
:1013A0000968096889060CD40021C18401684A696A
:1013B00022F080024A610068C16841F04001C160CA
:1013C00010BDFFF71FFF10BD10B5406AFFF71BFFF0
:1013D00010BD0168CA6822F49072CA6001684A6947
:1013E00022F001024A61016B012904D10168CA6837
:1013F00022F01002CA60202180F83E100021016313
:1014000070470168CA6822F0C002CA60202180F8D3
:101410003D10704708B590F83E10222901D00220F7
:1014200008BD82684FF480539A4201D1016921B10D
:10143000816A9A421BD04AB10AE00268816A526806
:10144000C2F308020A80816A891C08E0026972B14D
:101450000268526802F07F020A70816A491C816248
:10146000C18D491E0904090CC18503D019E0026829
:101470005268F1E70168CA6822F02002CA60016878
:10148000CA6822F48072CA6001684A6922F00102C7
:101490004A61202180F83E10016B012903D0FFF73B
:1014A0006FFE002008BD002101630168CA6822F0B8
:1014B0001002CA6001680A68D20602D50A68496843
:1014C0000091818DFFF7B0FCEBE7000070B504469A
:1014D00000680169E26821F440511143016121690A
:1014E000A0680843616908432168CA6841F20C6337
:1014F0009A430243CA6020684169A26921F440719D
:10150000114341611E492068884202D1FFF7A2FAC7
:1015100001E0FFF78FFA00EBC00101EB00126068F9
:1015200064218000B2FBF0F3B3FBF1F36FF0180617
:101530007343B2FBF0F5B2FBF0F605EB8305322303
:1015400003EB0515B5FBF1F5B6FBF1F605F0F0057B
:1015500005EB0615B2FBF0F6B2FBF0F0B0FBF1F0D4
:101560006FF01802504306EB800003EB0010B0FB55
:10157000F1F0216800F00F002844886070BD000081
:10158000003801400148FFF751BC00005400002022
:10159000FEE70907090E002804DB00F1E02080F8CF
:1015A0000014704700F00F0000F1E02080F8141DD7
:1015B000704700001FB5FFF71FF90BA00FC88DE89B
:1015C0000F00FFF791FEFFF757FEFFF71FFEFFF733
:1015D00069FE4FF47A74102269460748FFF7D2FD7E
:1015E0002046FEF7F9FFF6E748656C6C6F20776FD1
:1015F000726C64A3A10D0A005400002000000000DA
:1016000000000000010203040607080900000000B2
:10161000010203043416000800000020100000003E
:101620002801000844160008100000207007000080
:10163000440100080100000010000000000000004C
:041640000024F4008E
:04000005080000ED02
:00000001FF
