:020000040800F2
:100000007006002089010008470B0008CD0A00088F
:10001000450B00088F020008A70B00080000000035
:100020000000000000000000000000004B0B000872
:100030009102000800000000490B00084D0B000869
:10004000A3010008A3010008A3010008A301000800
:10005000A3010008A3010008A301000893020008FF
:10006000A3010008A3010008A3010008A3010008E0
:10007000A3010008A3010008A3010008A3010008D0
:10008000A3010008A3010008A3010008A3010008C0
:10009000A3010008A3010008A3010008A3010008B0
:1000A000A3010008A3010008A3010008A3010008A0
:1000B000A3010008A3010008A3010008A301000890
:1000C000A3010008A3010008A3010008A301000880
:1000D000A3010008A3010008A3010008A301000870
:1000E000A3010008A3010008A301000800F002F822
:1000F00000F03AF80AA090E8000C82448344AAF188
:100100000107DA4501D100F02FF8AFF2090EBAE885
:100110000F0013F0010F18BFFB1A43F0010318473B
:10012000C80A0000E80A0000103A24BF78C878C165
:10013000FAD8520724BF30C830C144BF04680C60ED
:10014000704700000023002400250026103A28BF35
:1001500078C1FBD8520728BF30C148BF0B60704739
:100160001FB51FBD10B510BD00F058F81146FFF7C0
:10017000F7FF00F029FD00F076F803B4FFF7F2FF77
:1001800003BC00F07DF8000009488047094800479B
:10019000FEE7FEE7FEE7FEE7FEE7FEE7FEE7FEE737
:1001A000FEE7FEE704480549054A064B7047000094
:1001B000A50B0008ED00000870000020700600206C
:1001C00070020020700200204FF0000200B51346BC
:1001D00094469646203922BFA0E80C50A0E80C5067
:1001E000B1F12001BFF4F7AF090728BFA0E80C5018
:1001F00048BF0CC05DF804EB890028BF40F8042B11
:1002000008BF704748BF20F8022B11F0804F18BF7D
:1002100000F8012B7047704770477047754600F033
:100220002BF8AE4605006946534620F00700854688
:1002300018B020B5FFF7B6FFBDE820404FF000062C
:100240004FF000074FF000084FF0000B21F00701BE
:10025000AC46ACE8C009ACE8C009ACE8C009ACE801
:10026000C0098D46704710B50446AFF300802046A4
:10027000BDE81040FFF781BF004870471000002024
:1002800001491820ABBEFEE7260002007047FEE7DA
:100290007047022000F00AB8022803D1202102484A
:1002A00000F000B97047000000080140044910B593
:1002B0000A68024202D00860FFF7EEFF10BD00009E
:1002C000140401402DE9F84FDFF8B891002409F13A
:1002D000040A0AF1040B23460F270BF1040EC9E0B0
:1002E0000125A5402A40AA427DD1674ED1F804C01D
:1002F000ACEB0608B44532D014DCBCF1030F3AD0A5
:1003000009DCBCF1000F2AD0BCF1010F1CD0BCF1FC
:10031000020F31D11DE0BCF1110F17D0BCF1120F4B
:100320002AD119E0B8F5881F19D006DCB8F5803F4E
:1003300015D0B8F5801F1FD111E0B8F5001F0ED001
:10034000B8F5041F18D10AE0CB6815E0CB681B1D77
:1003500012E0CB6808330FE0CB680C330CE08B68FD
:100360002BB1012B4FF0080303D0456104E00423B7
:1003700002E0056100E00023FF2A01D8064601E003
:1003800000F104064FEA840501D9A5F12005D6F84D
:10039000008007FA05FC28EA0C0803FA05F548EA8C
:1003A0000508C6F800804D68ED0062D5374DAE698E
:1003B00046F00106AE61AD6924F0030605F00105C3
:1003C0000095334D06EB050CDCF80850A607360FF8
:1003D00007FA06F825EA0805DFF8B880404503D19A
:1003E0004FF0000817E044E0DFF8AC80404502D150
:1003F0004FF001080FE0DFF8A480404502D14FF034
:10040000020808E0DFF89880404502D14FF0030869
:1004100001E04FF0040808FA06F848EA0508CCF8AD
:1004200008804D68D9F80060ED034D4601D51643AC
:1004300000E096432E604D68DAF80060AD03554643
:1004400001D5164300E096432E604D68DBF800604E
:10045000ED025D4601D5164300E096432E604D68DF
:10046000DEF80060AD02754601D5164300E0964304
:100470002E60641C0D682A46E5407FF431AFBDE86C
:10048000F88F00000004014000001110001002402D
:100490000000014000080140000C01400010014034
:1004A00000140140C26821EA02030A4043EA024103
:1004B000016170470AB1016170470904FBE7000060
:1004C00001488068704700000000002002488168F1
:1004D000027811448160704700000020074810B581
:1004E000016841F010010160032000F06DF80F2059
:1004F00000F006F800F024F8002010BD00200240B3
:1005000070B50D4D04464FF47A712878B1FBF0F0C8
:100510000A490968B1FBF0F000F0C4FA48B9102CA0
:1005200007D200222146501E00F02EF800206C60F9
:1005300070BD012070BD0000000000200C000020F4
:10054000094808B5816941F001018161816901F0C3
:1005500001010091C16941F08051C161C06900F0A1
:100560008050009008BD000000100240002809DB08
:1005700000F01F02012191404009800000F1E020BD
:10058000C0F8001170470000F0B40E4B1B680C4619
:10059000C3F30223C3F10705042D00D90425191D57
:1005A000072901D2002300E0DB1E012606FA05F12F
:1005B000491E214099409E40761E16403143F0BCB2
:1005C00000F0F2BA0CED00E0064900F007020868FE
:1005D0004FF6FF03184040EA0220034A1043086028
:1005E000704700000CED00E00000FA052DE9F0472F
:1005F0000F46050061D0434E306800F00700B84256
:1006000009D2306820F0070038433060306800F0CD
:100610000700B84251D128683B4C810712D54007EA
:1006200003D5606840F4E06060602878000703D577
:10063000606840F4605060606068A96820F0F00075
:10064000084360602878C00728D06868012810D067
:100650002168022810D0890700292EDA616821F06C
:10066000030101436160FFF72BFF804641F28839A7
:100670000DE021688903EFE78901EDE7FFF720FF2F
:10068000A0EB0801494502D90320BDE8F087606866
:10069000696800F00C00B0EB810FEFD1306800F01A
:1006A0000700B8420BD9306820F0070038433060AB
:1006B000306800F00700B84201D00120E5E7287853
:1006C000400705D56068E96820F4E0600843606091
:1006D0002878000706D56068296920F4605040EA50
:1006E000C100606000F018F86168084AC1F30311A6
:1006F000515CC8400649086006480068FFF700FFE3
:100700000020C2E70020024000100240D60B000883
:100710000C0000200400002012A185B00FC98DE854
:100720000F0014A0144A006804905168134801F0A7
:100730000C03042B10D0082B0ED1C1F38343C90343
:100740001DF803000AD5516804AAC1F34041515C69
:100750000A4A5043B0FBF1F005B0704708494843DE
:10076000FAE7000002030405060708090A0B0C0D4E
:100770000E0F1010010200000010024000127A005B
:1007800000093D002DE9F84F040070D02078C04DDD
:10079000C00749D06868C0F38100012807D06868A5
:1007A000C0F38100022809D16868C00306D5286813
:1007B000800339D560680028E7D035E06068B0F57F
:1007C000803F0BD010B1B0F5A02F11D0286820F4D5
:1007D00080302860286820F4802002E0286840F4F7
:1007E00080302860606890B1FFF76AFE06460AE034
:1007F000286840F480202860F0E700BFFFF760FE23
:10080000801B642873D828688003F7D50CE0FFF7B5
:1008100057FE064605E000BFFFF752FE801B642826
:10082000F0D828688003F7D420789A4E80074FF0DC
:1008300001094FF0000839D5686810F00C0F07D097
:100840006868C0F38100022809D16868C00306D433
:100850002868800714D52069012808D110E0206994
:10086000B0B1C6F80090FFF72BFE074605E00AE19D
:10087000FFF726FEC01B0228C4D828688007F7D5DA
:100880002868616920F0F80040EAC10028600DE0A6
:10089000C6F80080FFF714FE074604E0FFF710FEDD
:1008A000C01B022823D828688007F7D420780007C7
:1008B0002CD57948A169D9B1C0F80090FFF700FEA6
:1008C000074604E0FFF7FCFDC01B02280FD8686A4A
:1008D0008007F7D571484FF4FA510068B0FBF1F08A
:1008E000009000BF0098411E0091FAD20EE080E017
:1008F000C0F80080FFF7E4FD074604E0FFF7E0FDE5
:10090000C01B022875D8686A8007F7D42078400792
:1009100060D5E8690027C00008D4E86940F080503D
:10092000E861E869012700F0805000905C480168A8
:10093000C90513D40168834641F480710160FFF753
:10094000BFFD824606E000BFFFF7BAFDA0EB0A003C
:1009500064284ED8DBF80000C005F5D5E068012812
:100960000AD008B1052813D0286A20F001002862B7
:10097000286A20F0040002E0286A40F001002862A2
:10098000E06841F2883B98B1FFF79AFD82460BE0A0
:10099000286A40F004002862EEE700BFFFF790FDF0
:1009A000A0EB0A0159455AD8286A8007F6D50CE011
:1009B000FFF786FD824605E0FFF782FDA0EB0A0106
:1009C00059454CD8286A8007F6D41FB1E86920F051
:1009D0008050E861E06988B36968C1F38101022948
:1009E00044D00228C6F8608004D0FFF769FD0446B1
:1009F00038E034E0FFF764FD074604E0FFF760FDF0
:100A0000C01B02282BD828688001F7D4206AB0F5D3
:100A1000803F05D16868A16820F400300843686011
:100A2000D4E908010843696821F474110843686037
:100A3000C6F86090FFF744FD044606E025E000BFDD
:100A4000FFF73EFD001B022809D828688001F7D572
:100A50001BE000BFFFF734FD001B022802D9032072
:100A6000BDE8F88F28688001F4D40EE00128F7D0A3
:100A70006868226A00F48031914204D1616A00F40E
:100A80007010884201D00120EAE70020E8E700006A
:100A90000010024000004242800442420C0000204C
:100AA0000070004010B5401EB0F1807F01D30120DE
:100AB00010BD4FF0E02460610F21601700F074F862
:100AC0000020A06107202061002010BDFEE700008B
:100AD00070B586B0002418480094019402940394E1
:100AE000816941F0040181618069144E00F00400C5
:100AF0000490224620213046FFF7DCFC02251048F6
:100B00000095CDE9010469463046FFF7DBFB202064
:100B1000009001AA012082E8310069463046FFF7C3
:100B2000D1FB002211460720FFF72EFD0720FFF71B
:100B30001DFD06B070BD000000100240000801401D
:100B400000001110FEE7FEE770477047FFF7BEBCDC
:100B500030B58FB028216846FFF736FB14210AA86C
:100B6000FFF732FB0120022504900095102005902C
:100B70000024CDE9075468460994FFF703FE08B145
:100B800072B6FEE70F200A90CDE90B540D940021B8
:100B90000AA80E94FFF72AFD002801D072B6FEE7DE
:100BA0000FB030BD7047FEE70907090E002804DBCF
:100BB00000F1E02080F80014704700F00F0000F111
:100BC000E02080F8141D7047FFF788FCFFF7C0FF96
:100BD000FFF77EFFFEE700000000000000000102BA
:100BE0000304060708090000080C000800000020A4
:100BF0001000000028010008180C00081000002058
:100C00006006000044010008010000001000000020
:080C1000000000000024F400C4
:04000005080000ED02
:00000001FF
