:020000040800F2
:1000000038070020890100088D0100088F010008D1
:10001000910100089301000895010008000000000C
:100020000000000000000000000000009701000830
:1000300099010008000000009B0100089D010008D4
:100040009F0100089F0100089F0100089F01000810
:100050009F0100089F0100089F0100089F01000800
:100060009F0100089F0100089F0100089F010008F0
:100070009F0100089F0100089F0100089F010008E0
:100080009F0100089F0100089F0100089F010008D0
:100090009F0100089F0100089F0100089F010008C0
:1000A0009F0100089F0100089F0100089F010008B0
:1000B0009F0100089F0100089F0100089F010008A0
:1000C0009F0100089F0100089F0100089F01000890
:1000D0009F010008410400089F0100089F010008DB
:1000E0009F0100089F0100089F01000800F002F82E
:1000F00000F03AF80AA090E8000C82448344AAF188
:100100000107DA4501D100F02FF8AFF2090EBAE885
:100110000F0013F0010F18BFFB1A43F0010318473B
:100120005C0400007C040000103A24BF78C878C149
:10013000FAD8520724BF30C830C144BF04680C60ED
:10014000704700000023002400250026103A28BF35
:1001500078C1FBD8520728BF30C148BF0B60704739
:100160001FB51FBD10B510BD00F02FF81146FFF7E9
:10017000F7FF00F0E7F900F04DF803B4FFF7F2FFE6
:1001800003BC00F09FF9000008480047FEE7FEE7C7
:10019000FEE7FEE7FEE7FEE7FEE7FEE7FEE7FEE737
:1001A00003480449044A054B70470000ED0000086D
:1001B00038010020380700203803002038030020D1
:1001C00070477047704770477047754600F02CF8CD
:1001D000AE4605006946534620F00700854618B034
:1001E00020B5FFF7DDFFBDE820404FF000064FF0DF
:1001F00000074FF000084FF0000B21F00701AC465C
:10020000ACE8C009ACE8C009ACE8C009ACE8C0097A
:100210008D46704710B50446AFF300802046BDE818
:100220001040FFF7AABF000000487047D40000202C
:10023000002004490860481503490860400103494B
:10024000C86070470C0801400C0C014000100140D0
:100250002020054908600020044908604FF48040D0
:100260000349C860704700000C0801400C0C0140B5
:100270000010014020200449086000010349086083
:1002800000200349C86070470C0801400C0C014075
:10029000001001402348806940F004002149886132
:1002A0000846806940F0080088610846806940F08F
:1002B000100088611C48006820F470001A4908602A
:1002C0000846006840F44010086017480C30006889
:1002D00040F0200014490C3108601448006820F0F8
:1002E000F000124908600846006840F020000860ED
:1002F0000E480830006840F400700C49083108606E
:100300000B48406820F07060094948600846406822
:1003100040F0007048600846C06840F48040C86003
:10032000704700000010024000080140040C01402A
:100330000010014000B5002015490861C860142074
:10034000486100208861C8610846006840F00100EB
:100350000860084640680F4908400D494860084653
:1003600000680D4908400A4908600846006820F402
:10037000802008600846406820F4FE0048600020A5
:10038000886000214FF0006000F008F800BD000018
:10039000001002400000FFF8FFFFF6FE024A0A408C
:1003A0000243024B1A60704780FFFF1F08ED00E018
:1003B00030B504460025FFF7BDFF1F48006840F434
:1003C00080301D49086000BF1B480068400C0028B1
:1003D000FAD04FF4806018494860A01EC4B20846A5
:1003E000406840EA844048600846406840F48030F5
:1003F00048601248006840F03200104908600E481A
:10040000006840F080700C49086000BF0A4800682E
:10041000400E0028FAD00848406840F00200064923
:10042000486005E004484068C0F3870505F003050F
:10043000022DF7D130BD0000001002400020024024
:100440001D49098801F0200111B31B49091D0988C4
:10045000C8B21A49098801F40041C9B91749098885
:1004600001F4804161B10A2803D00021134A1180B0
:1004700020E01249098841F40041104A118019E036
:100480000D2806D10D49098841F480410B4A11809D
:1004900010E00A490988C1F30D01094A505407497F
:1004A0000988491C054A118011460988C72901DDC0
:1004B0000021118070470000003801400800002032
:1004C0000C00002000BF70474FF0E021096921F0C7
:1004D00004014FF0E0221161C21700EB5272C2F327
:1004E000C702074B1A701946097801EB4102C2EBAB
:1004F000C1114FF6FF7202EAC101024A1180704732
:10050000000000200200002001460D4A12884A43E4
:100510004FF0E0235A6100229A6101221A6100BF64
:100520004FF0E022106900F001021AB100F48032AD
:10053000002AF5D000224FF0E0231A619A6170473B
:10054000020000200920FFF733FF4820FFF7BCFF1F
:10055000FFF7A0FE11E0FFF76BFE4FF47A70FFF794
:10056000D3FFFFF775FE4FF47A70FFF7CDFFFFF76B
:1005700081FE4FF47A70FFF7C7FFECE79C05000897
:10058000000000200C00000028010008A805000859
:100590000C0000202C0700004401000800000000AF
:0805A000000000000000000053
:04000005080000ED02
:00000001FF
